S01D00006275696C642F6174726F6E4E6F7274682F6D61696E2E73726563C5
S11300000C94BF010C94DD180C9412120C941C1265
S11300100C9426120C94CC150C940A1F0C943012D8
S11300200C943A120C94DE010C94DE010C94D71259
S11300300C94B6120C94C1120C94E8120C94430E56
S11300400C94830E0C94DE010C9412240C94DE01A7
S11300500C94FF300C9444120C94DE010C94DE01D9
S11300600C94CC120C94DE010C94DE010C94DE0191
S11300700C94DE010C94DE010C9462100C94DE01ED
S11300800C94E5100C94DE010C94DE017A25822593
S11300909F25A125CD25DB25FB25FD25012603264E
S11300A00526072609260B260D26112617261B26AC
S11300B01F26232627262B262F2633263B263D269E
S11300C045264D266A2672268E2688279E278F2748
S11300D080288328862889288C289228952898287F
S11300E0A328D128D428D728DA28DD28BD29C02977
S11300F0C629C929CC29CF29D229D5295C2A5F2A26
S1130100DE2E622A6B2A6E2A712A742A772A7A2AA8
S11301107D2A802A832A862ADE2EDE2EDE2EDE2EFD
S1130120892A8C2ABD2A0B2C0E2C112C492C4C2CE0
S11301305B2C772C942C972C9A2C9D2CBD2CFC2C6E
S1130140FF2CDE2E042D182D1B2D1E2D242D392DB4
S11301503C2D3F2D722D752D782D812D842D872DCD
S11301609C2D9F2D492E4C2E7A28902EA12EBE2EEA
S1130170DE2ED72EDE2EDA2E000021104220633030
S11301808440A550C660E770088129914AA16BB1EB
S11301908CC1ADD1CEE1EFF1311210027332522293
S11301A0B5529442F772D662399318837BB35AA33B
S11301B0BDD39CC3FFF3DEE3622443342004011463
S11301C0E664C774A44485546AA54BB5288509958B
S11301D0EEE5CFF5ACC58DD5533672261116300633
S11301E0D776F6669556B4465BB77AA719973887DB
S11301F0DFF7FEE79DD7BCC7C448E5588668A778F3
S11302004008611802282338CCC9EDD98EE9AFF92A
S1130210488969990AA92BB9F55AD44AB77A966AD2
S1130220711A500A333A122AFDDBDCCBBFFB9EEB7A
S1130230799B588B3BBB1AABA66C877CE44CC55CA2
S1130240222C033C600C411CAEED8FFDECCDCDDDCA
S11302502AAD0BBD688D499D977EB66ED55EF44E72
S1130260133E322E511E700E9FFFBEEFDDDFFCCF1A
S11302701BBF3AAF599F788F8891A981CAB1EBA16E
S11302800CD12DC14EF16FE18010A100C230E320EA
S11302900450254046706760B9839893FBA3DAB392
S11302A03DC31CD37FE35EF3B1029012F322D2323A
S11302B03542145277625672EAB5CBA5A895898562
S11302C06EF54FE52CD50DC5E234C324A01481048A
S11302D06674476424540544DBA7FAB79987B89732
S11302E05FE77EF71DC73CD7D326F2369106B016DA
S11302F057667676154634564CD96DC90EF92FE9F2
S1130300C899E9898AB9ABA9445865480678276829
S1130310C018E1088238A3287DCB5CDB3FEB1EFBD1
S1130320F98BD89BBBAB9ABB754A545A376A167A79
S1130330F10AD01AB32A923A2EFD0FED6CDD4DCDA1
S1130340AABD8BADE89DC98D267C076C645C454CC9
S1130350A23C832CE01CC10C1FEF3EFF5DCF7CDF71
S11303609BAFBABFD98FF89F176E367E554E745E19
S1130370932EB23ED10EF01E00081C181410112446
S11303801FBECFEFD0E1DEBFCDBF13E0A0E0B1E0F0
S1130390EAE7F7E800E00BBF02C007900D92AC3823
S11303A0B107D9F71CE0ACE8B3E001C01D92A43753
S11303B0B107E1F70E941D2F0C94BC430C9400007C
S11303C08FB7F894992708958FBF089540916309D2
S11303D0442309F43EC0A091DE037091C3036091ED
S11303E0D90390E051E0842F852319F1E92FFF27E9
S11303F0EE0FFF1FE055F94F2081318111821082E9
S1130400852F80954823913051F0913018F0923027
S113041081F40AC02F51384089F470E00FC02E597E
S1130420354061F4A0E00AC02550364039F460E05C
S113043005C09F5F983028F4550FD5CF550F9F5FA7
S1130440D2CF409363096093D9037093C303A093FD
S1130450DE030895FC0180819181892B21F00190B4
S1130460F081E02D099482E08283089580916300F5
S1130470282F33273695279521703070809163009B
S113048080FD08C0222319F08AE791E0089586E3ED
S113049090E00895222319F08EE091E0089582EA15
S11304A090E00895E82F8FB59E2F990F20E830E053
S11304B002C0359527959A95E2F7822B8FBDEE23DE
S11304C019F0E13029F402C0BD9A07C0BE9A09C0F0
S11304D0EE2319F0E13049F404C0C59877BD66BD38
S11304E00BC0C69877BD66BD0AC077BD66BDEE2356
S11304F019F0E13031F403C05BBD4ABD089559BD24
S113050048BD0895AB01BC0181E00E9452020895E8
S1130510992780FF02C0D89A01C0D89881FF02C0F1
S1130520D99A01C0D99882FF02C0DA9A01C0DA9838
S113053083FF02C0DB9A0895DB9808950F931F93FD
S113054004E610E0F80180818D7F808380818E7FB6
S113055080830E943602909300068093FF05E3E6B1
S1130560F0E08081992796958795817090708093AB
S1130570A208808181708093BD0989B78F7E89BF6D
S113058080E188BF8AB78D7F8ABF8AB781608ABFBE
S113059089B7806189BF89B78F7D89BF80E288BFB1
S11305A08AB7877F8ABF8AB784608ABF89B7806227
S11305B089BFB8988F9A9798B99ABA9AC29840E026
S11305C050E065EB70E080E00E9452020E94360227
S11305D09093EE048093ED04F80180818061808320
S11305E0139A1B9ABB9ABC9AC49AD09AD19AD29A5B
S11305F0D39ABF9AC798D498D598D698D79880E0BC
S11306000E9488028EB59FB5877E80619C7F8EBDD7
S11306109FBD8EB5887F81608EBD16B812BE87B728
S1130620816087BF83B7887F866083BF80E090E066
S11306301F910F910895282F9FB7F894E82FFF2753
S1130640ED5CF94F80818F3F91F48091D30982173B
S113065081F40DC02093620906C0E091D309FF27FD
S1130660ED5CF94F20832093D30920E007C025E0F7
S113067005C0809162098F3F81F7ECCF892F9927BC
S11306808FBF822F9927089587E00E941B03992723
S1130690089583E10E941B0399270895EAE9F0E095
S11306A080818F7B808380818F778083109205087F
S11306B01092F304808188608083808180618083CC
S11306C080818068808380E10E941B03089582E119
S11306D00E941B039927089585E10E941B03992713
S11306E008958FB7F894992721E020931C088FBFB1
S11306F089E10E941B0308958FE20E941B0399273E
S1130700089588E20E941B03992708958CE20E94B1
S11307101B039927089581E30E941B0399270895D9
S113072083E30E941B03992708951092C1049091BA
S1130730C10680913309882349F01092330910923D
S113074063049093060887E30E941B03089581E4E1
S11307500E941B039927089583E40E941B03992791
S113076008958AE30E941B03882319F481E080938F
S1130770CA06089585E40E941B039927089586E418
S11307800E941B039927089587E40E941B0399275D
S1130790089588E40E941B03992708958BE40E941E
S11307A01B03992708958EE40E941B03992708953B
S11307B08FE40E941B039927089583E50E941B037D
S11307C0992708951F931FB7F894809110088823E0
S11307D041F482E00E941B03882319F481E0809392
S11307E01008812F99278FBF1F910895282F80917A
S11307F0910390919203892B19F085E090E008957C
S11308005FB7F894293040F4273008F063C02223FE
S113081039F0243039F402C0293021F48AE05BC075
S113082083E059C01092940330E0109295037093C2
S1130830900360938F0382E090E0909392038093FF
S113084091032093970310929603263099F0273052
S113085040F4243009F444C0253060F4222341F0EC
S113086011C0283049F0283038F0293059F406C036
S1130870495F36C0465F34C04F5F32C0340F309397
S1130880930304C030939303293029F481E08093C7
S1130890980329E004C02091BF0410929803852F87
S11308A099278FBF9FB7F8948091BF06882311F0D2
S11308B020E006C081E08093BF062093C00621E0BB
S11308C0892F99278FBF222379F00E94E20380E0C9
S11308D090E0089589E09927382F80939403A5CF59
S11308E0340F30939303D7CF109292031092910355
S11308F081E090E008951F93982F142F80919F0317
S1130900882329F58091A103882309F58091A00308
S11309108823E9F48091BF048F5F8093BF048930FA
S113092019F481E08093BF04412F892F0E94F603BC
S1130930882319F081E090E00CC081E08093A20349
S11309401093190880939F0380E090E002C085E033
S113095090E01F910895CF93DF93282F843018F0EF
S113096081E090E041C0C82FDD27FE01EE0FFF1F9C
S1130970EC0FFD1FE453FB4F80819181892B19F00B
S113098085E090E031C071836083428380911601D9
S1130990843018F480E090E027C0213061F02130E9
S11309A040F0223051F0233011F488E007C080E099
S11309B005C085E003C086E001C087E020931601EE
S11309C00E947B049927282F882361F084E0809378
S11309D01601FE01EE0FFF1FEC0FFD1FE453FB4F4A
S11309E011821082822F9927DF91CF9108951F934E
S11309F0CF93DF938FB7F89499275091B203A091C6
S1130A00B303B091B4034091B5031091E70420916E
S1130A10B6038FBFBD01665F7F4FFD01108633278C
S1130A2020FF02C082E001C080E021FF02C0846098
S1130A3001C08B7F22FF02C0886001C0877F23FF33
S1130A4002C0816001C08E7FFD0180875430B1F106
S1130A50553018F4552391F104C0852F8750823006
S1130A6068F1553051F0563028F4552339F154309B
S1130A7031F424C0593018F421C04A5003C0553011
S1130A80E9F440E08091C1038823C1F4C0911101CD
S1130A90D0911201B0931201A09311017093AF068B
S1130AA06093AE064093C605BD0181E00E94AB048D
S1130AB0882319F481E08093C103DE018FB7F89491
S1130AC0E12FFF27EE0FFF1FE65FFE4FB183A083E8
S1130AD02091A503112311F02B7F01C02D7F2093BA
S1130AE0A5031092B10399278FBFDF91CF911F9176
S1130AF00895CF93DF93282FFB01843018F081E011
S1130B0090E02CC09927EC01CC0FDD1FC80FD91F32
S1130B10C752D64F88819981892B19F085E090E0DE
S1130B201DC0F983E8834A8380912301843018F43B
S1130B3080E090E013C08185209323018187BF0169
S1130B4082E00E94AB049927282F882329F084E0AF
S1130B508093230119821882822F9927DF91CF91E4
S1130B600895EF920F931F93AE2D99E0899FF001A2
S1130B701124E453F94F40835183628373830483C4
S1130B80158326833783A17080858E7F8A2B8260AC
S1130B90808781E00E941B031F910F91EF900895BD
S1130BA09FB7F8942091C3063091C4064091C506BE
S1130BB05091C60682B706B600FE05C02F5F3F4FB0
S1130BC04F4F5F4F82B7682F892F99278FBFE2E07D
S1130BD0220F331F441F551FEA95D1F7629566957E
S1130BE066956370862F9927AA27BB27282B392B54
S1130BF04A2B5B2BCA01B9010895AF92BF92CF92E1
S1130C00DF92EF92FF920F931F93F82E5A016B011C
S1130C100E94D005AB01BC01F1E0EF2E96018501E5
S1130C208F2D0E94B1051F910F91FF90EF90DF90DF
S1130C30CF90BF90AF9008954DE050E060E070E039
S1130C4081E00E94FD0508954DE050E060E070E011
S1130C5083E00E94FD0508951F938091BA091091C5
S1130C602D06182B883039F1893038F48230B9F0E8
S1130C708430D9F08130F1F50CC0803241F18132F9
S1130C8018F48031B9F51DC0803439F1803891F5FC
S1130C902AC040ED57E060E070E086E029C040EDF6
S1130CA057E060E070E087E023C040ED57E060E08B
S1130CB070E088E01DC040ED57E060E070E089E03E
S1130CC017C040ED57E060E070E08AE011C040EDED
S1130CD057E060E070E08BE00BC040ED57E060E06F
S1130CE070E08CE005C040ED57E060E070E08DE01E
S1130CF00E94FD0580912D06811711F010932D0699
S1130D001F910895CF93DF93C0E0D0E080916109F3
S1130D1099270C2E02C0959587950A94E2F780FFD7
S1130D2055C021E030E00C2E02C0220F331F0A947C
S1130D30E2F780911E08822B80931E08283039F137
S1130D40293038F42230B9F02430D9F02130F1F5CB
S1130D500CC0203241F1213218F42031B9F51DC004
S1130D60203439F1203891F52AC04BE251E060E09B
S1130D7070E08EE029C04BE251E060E070E08FE06B
S1130D8023C04BE251E060E070E080E11DC04BE223
S1130D9051E060E070E081E117C04BE251E060E0B7
S1130DA070E082E111C04BE251E060E070E083E169
S1130DB00BC04BE251E060E070E084E105C04BE21F
S1130DC051E060E070E085E10E94FD052196C830A5
S1130DD0D10509F09BCF10926109DF91CF9108955D
S1130DE0AB01BC018AE10E94FD0508954AE050E090
S1130DF060E070E08CE10E94FD050895809121017E
S1130E00409111085091120820912E068823F9F080
S1130E10222329F08091ED049091EE0404C0809186
S1130E206E0890916F08BA01681B790BCB01F2F43C
S1130E30222329F08091ED049091EE0404C0809166
S1130E406E0890916F089A01281B390B1EC022234B
S1130E5029F08091ED049091EE0404C080916E0815
S1130E6090916F08841B950B97FD02C09C010FC0E5
S1130E70222329F02091ED043091EE0404C0209146
S1130E806E0830916F08241B350B20553E4F60913E
S1130E90CA03772788EB9BE00E942943269FA00181
S1130EA0279F500D369F500D1124662777278DE11B
S1130EB00E94FD050895CF93DF93282FFB0189300D
S1130EC018F081E090E02BC09927EC01CC0FDD1FD6
S1130ED0C80FD91FCC5DDA4F88819981892B19F00D
S1130EE085E090E01CC0798368834A8380911E0169
S1130EF0893018F480E090E012C0818520931E01AF
S1130F00818783E00E94AB049927282F882329F046
S1130F1089E080931E0119821882822F9927DF911C
S1130F20CF910895982F969596959695E6E9F4E0D5
S1130F30E90FF11D877021E030E002C0220F331F5A
S1130F408A95E2F780818223992708950F931F934E
S1130F50CF93DF93182F8FB7F894282F3327022FBE
S1130F608091C503882359F581E08093C5031093CC
S1130F7041052FBF8FB7F8949927379A8FBF8FB742
S1130F80F894C82FDD279C2F80911C018530A9F48B
S1130F908091C503813021F489E20E941B0309C0BA
S1130FA0823059F48091410580931C0183E0809341
S1130FB0C503CFBF80E090E01FC09FBFFBCF812F50
S1130FC00E949207882319F085E090E014C0E12F75
S1130FD0E695E695E695FF27EA56FB4F177081E004
S1130FE090E002C0880F991F1A95E2F72081282B00
S1130FF0208380E090E00FBFDF91CF911F910F918C
S11310000895823089F0833028F4882349F08130B0
S113101029F408C0833051F0843051F081E00BC0D2
S113102080E007C081E005C082E003C083E001C026
S113103084E00E94A6079927089582E00E9401088F
S1131040882319F481E080939404089583E00E9436
S11310500108992708959FB7F894282F332720FF74
S113106002C0A89A01C0A89821FF02C0A99A01C091
S1131070A99822FF02C0AA9A01C0AA9823FF02C01D
S1131080AB9A01C0AB9824FF02C0AC9A01C0AC98E3
S113109025FF02C0AD9A01C0AD9826FF02C0AE9AEA
S11310A001C0AE9887FF02C0AF9A01C0AF98892FE4
S11310B099278FBF08958FEF0E942B0844E650E0D4
S11310C060E070E081E20E94FD050895982F9695F6
S11310D096959695EBECF6E0E90FF11D877021E00B
S11310E030E002C0220F331F8A95E2F78081822309
S11310F099270895CF93DF938FB7F894C82FDD27EE
S11311009C2F809110018230A9F48091B903813021
S113111021F486E10E941B0309C0823059F48091B6
S113112073088093100183E08093B903CFBF80E0FC
S113113090E003C09FBF81E090E0DF91CF910895DC
S11311409FB5880F2FE73FE002C0359527958A9514
S1131150E2F792239FBD089581E00E94A0080895BC
S11311602FB7F89499B79E7F99BF91E098BF90915B
S11311706A00926090936A00882321F080916A004B
S1131180816003C080916A008E7F80936A0089B772
S1131190816089BF822F99278FBF80E090E00895F6
S11311A080E00E94B00899270895809160098230F8
S11311B009F48FC0833030F4882309F48DC0813062
S11311C039F481C0833009F481C0843009F481C0CA
S11311D0823081F0833028F4882341F0813071F427
S11311E00BC0833029F0843049F404C0A0E075C0FA
S11311F0A0E06DC0A0E06EC0A0E066C08230D9F06F
S1131200833028F4882359F0813029F40CC08330CA
S113121071F0843081F02FE1A0E0F0E00FC0A0E095
S1131220F0E022E00BC0A0E0F0E023E007C0A0E083
S1131230F0E021E003C0A0E0F0E020E0622FEFB78F
S1131240F8948091C3048E7F8093C30487B1782F70
S11312507F712F2F332782958695869583709927E2
S11312602817390719F080E090E013C0862F8850C2
S1131270863118F081E090E00CC040E050E0262F69
S11312803327872F99272817390711F441E050E0B5
S1131290CA01982F9170990F8091C3048178262FE9
S11312A02F71422F440F440F892B842B8093C30446
S11312B0F295FF0FFF0FF07C2F2B332727B9A830AF
S11312C071F4A7E00CC0A8E0F1E0AFCFA8E0F1E032
S11312D0B0CFA8E0F1E0B1CFA8E0F1E0A2CFA770D1
S11312E0887D8A2B886D992786B98E2F99278FBF81
S11312F0089591E09093FA05809360090E94D508BF
S113130080E090E008958FB7F8942091180130910F
S113131019019FEF2E3F390721F42091F8053091F0
S1131320F90599278FBFC9010895FC018085282FED
S11313303327C90196958795817022FD826023FF2A
S113134002C0846001C08B7F20FF02C0886001C09E
S1131350877F99270895FC016183672F772760832E
S113136008951F93809116019927019664E070E017
S11313700E942943482F8093160110E0A42FBB2715
S1131380FD01EE0FFF1FEA0FFB1FE453FB4F6081CB
S113139071816115710599F0E42FE695E695E6955E
S11313A0FF27E250FA4F808199279D012770307002
S11313B002C0959587952A95E2F780FF0DC0CD016F
S11313C0019664E070E00E942943482F1F5F1430A7
S11313D0A9F61093160124C040931601443000F579
S11313E0413061F0413040F0423051F0433011F46B
S11313F088E007C080E005C085E003C086E001C046
S113140087E0FD01EE0FFF1FEA0FFB1FE453FB4FC4
S113141042810E947B04882319F08EE10E941B0301
S11314201F9108950F931F9389B78E7F89BF0FB7BC
S1131430F89411278091B8060E9488020FBF1F916B
S11314400F9108958FB7F894282F33278091B9030B
S11314508823C1F482E08093B903109273082FBFEC
S11314608FB7F894282F33278091C206882311F070
S11314702FBF03C02FBF0E947A08809110018823D8
S113148051F404C02FBF81E090E008950E94120A35
S113149080E090E008958FB7F89499271092B903EB
S11314A08FBF81E090E008951F931FB7F894809157
S11314B02C06882341F48DE00E941B03882319F431
S11314C081E080932C06812F99278FBF1F91089567
S11314D0282F8091AA039091AB03892B19F085E002
S11314E090E008955FB7F894243061F0253018F443
S11314F0222331F009C0822F8750823028F453C050
S113150083E052C08AE050C01092AD0330E01092E4
S1131510AE037093A9036093A80382E090E09093D4
S1131520AB038093AA032093B0031092AF0325303A
S113153089F0263028F4222359F0243039F40DC0E0
S1131540273051F0273030F0283031F040E005C02A
S1131550495F03C0465F01C04F5F340F3093AC0353
S11315608091C5048093FD05852F99278FBF309105
S1131570FD059FB7F89480910D08882311F020E0B1
S113158008C081E080930D0820930E083093B806BC
S113159021E0892F99278FBF222359F00E94540AF2
S11315A080E090E0089589E09927382F8093AD0377
S11315B0AECF1092AB031092AA0381E090E008959D
S11315C09FB7F89480910B098A3011F020E006C08F
S11315D020E08091C206843009F421E0892F992704
S11315E08FBF222349F081E10E941B038FB7F89437
S11315F099271092A40306C08FB7F894992721E085
S11316002093A4038FBF08952FB7F89433278CB980
S11316105E9A2FBF0895FC016115710519F481E0EC
S113162090E008958091F0059091F105892B19F0CF
S113163085E090E00895F093F105E093F005709350
S1131640C8066093C70610923B0410923A0481E0E6
S113165080932F065E9A569A808121E030E0309381
S11316603B0420933A040E94040B80E090E0089528
S11316708091B7038E7F8093B7038EE7809304082D
S113168061E070E084E098E00E940B0B99270895D4
S1131690982F4FB7F8948091B103882399F5992333
S11316A089F531E03093B103809109018093B2034D
S11316B02091A503822F81708093E70480910E010D
S11316C090910F019093B4038093B3038091A60388
S11316D08093B50332273170267EE32FFF27EE0F68
S11316E0FF1FE65FFE4F8081918190930F018093ED
S11316F00E01232B2093A5038091A7038093B603A7
S113170021E001C020E0842F99278FBF222319F004
S113171084E10E941B0308959FB7F8948091F60515
S11317208A3011F020E006C020E08091F308843074
S113173009F421E0892F99278FBF222349F086E0FD
S11317400E941B038FB7F894992710928C0306C04C
S11317508FB7F894992721E020938C038FBF0895C5
S11317602FB7F894332780939C00EBE9F0E0808155
S1131770806480832FBF0895FC016115710519F4FD
S113178081E090E008958091F3059091F405892B10
S113179019F085E090E00895F093F405E093F305E3
S11317A07093FD086093FC081092F2041092F10407
S11317B081E08093F30480919B00806480939B007C
S11317C080919A00806480939A00808121E030E0C7
S11317D03093F2042093F1040E94B00B80E090E077
S11317E0089580919E038E7F80939E038EE780935D
S11317F0130861E070E083E198E00E94BC0B992734
S113180008951F938FB7F894109210082091F6054D
S113181040E0283009F441E030E0293009F431E0B7
S1131820442311F4332351F01092F605E091F004AF
S1131830FF27EE0FFF1FE354F94F108299278FBF44
S1131840442311F4332319F1809193048F5F80931F
S11318509304809109088334A1F49FB7F8942091EC
S1131860030980910209821741F0822F8F5F8093D0
S11318700309863010F010920309892F99278FBF2E
S11318800AC0A0E0442309F4A1E071E006C02223C9
S113189011F010E069C0A0E070E08FB7F8949927C8
S11318A020918C038FBF222341F08FB7F89499279E
S11318B02AE02093F6058FBF43C08FB7F894992789
S11318C06091BD064091BF068FBF8FB7F894282F53
S11318D0332750E09091020980910309981709F485
S11318E051E02FBF552349F5662339F55FB7F894C6
S11318F082E08093BD068FB7F894282F332740E009
S11319009091020980910309981709F441E02FBFCF
S1131910442311F080E006C0E0910309FF27EE5F45
S1131920F64F82818093BE06852F99278FBF83E46B
S1131930809309081092F0040BC04150423010F01B
S113194010E007C085E48093090881E08093F004E7
S113195011E0772349F08FB7F8949927A093950362
S11319608FBF88E00E941B038091F6058A3019F42A
S11319700E948C0B2CC0112351F18FB7F894282F9F
S113198033278091F3088823A9F4949A959A2FBF5A
S11319902FB7F89433271092400510923F05109208
S11319A0C90981E08093F6052FBF0E94F10B8823BB
S11319B071F002C02FBF09C0949895988FB7F8941E
S11319C0992729E02093F6058FBF0E94E2031F9117
S11319D0089590912D0680958923981711F080938E
S11319E02D060895982F4FB7F89480919903882372
S11319F079F5992369F531E03093990380910201D7
S1131A0080939A0320918D03822F81708093EA033F
S1131A10809107019091080190939C0380939B030C
S1131A2080918E0380939D0332273170267EE32FAD
S1131A30FF27EE0FFF1FED5FFE4F80819181909392
S1131A40080180930701232B20938D0321E001C01B
S1131A5020E0842F99278FBF222319F089E00E9468
S1131A601B0308956F927F928F929F92AF92BF92C1
S1131A70CF92DF92EF92FF920F931F930E94D005B3
S1131A805B016C0180919B0890919C08A0919D083A
S1131A90B0919E08A6019501281B390B4A0B5B0BDC
S1131AA01092C809E0901408F090150800911608E7
S1131AB0109117082E153F0540075107B8F08E0DF9
S1131AC09F1DA01FB11F80939B0890939C08A09317
S1131AD09D08B0939E081092140810921508109255
S1131AE016081092170882B7282F76C037014801CC
S1131AF0621A730A840A950AA401930125303105F8
S1131B0041055105B0F0203084E0380780E04807F3
S1131B1080E0580720F08FEF8093C8096BC0F2E093
S1131B205695479537952795FA95D1F72093C80987
S1131B3061C0233031054105510550F1E2E06E2EBC
S1131B40712C812C912CA60CB71CC81CD91CA092FA
S1131B509B08B0929C08C0929D08D0929E088EEF7C
S1131B609FEFAFEFBFEFA80EB91ECA1EDB1E2250B7
S1131B70304040405040209314083093150840935F
S1131B8016085093170822E030E040E050E014C0FB
S1131B908E0D9F1DA01FB11F80939B0890939C08DE
S1131BA0A0939D08B0939E081092140810921508F3
S1131BB01092160810921708922F9295990F990F68
S1131BC0907C6A2D6295660F660F607C82B7282F21
S1131BD0861B865F891718F0622F665F01C0690F44
S1131BE0662309F461E0615061BF82E086BF87B774
S1131BF0826087BF1F910F91FF90EF90DF90CF908D
S1131C00BF90AF909F908F907F906F9008950F93A7
S1131C101F930FB7F894112760939B0870939C0847
S1131C2080939D0890939E08209314083093150880
S1131C3040931608509317080E94320D0FBF1F914E
S1131C400F910895282F9FB7F894662349F0E82F41
S1131C50FF27E45EF74F8081882311F021E006C05E
S1131C60E22FFF27E45EF74F608320E0892F992756
S1131C708FBF822F992708958FB7F89499271092D0
S1131C801D088FBF089578941F920F920FB60F927C
S1131C9011241F932F933F934F935F936F937F93DD
S1131CA08F939F93AF93BF93EF93FF9387B78D7FEA
S1131CB087BF78941FB7F894809114089091150801
S1131CC0A0911608B09117080097A105B10521F459
S1131CD080E00E941B0302C00E94320D812F9927CD
S1131CE08FBFFF91EF91BF91AF919F918F917F91A2
S1131CF06F915F914F913F912F911F910F900FBE64
S1131D000F901F90189578941F920F920FB60F9210
S1131D1011241F932F933F934F935F936F937F935C
S1131D208F939F93AF93BF93EF93FF931FB7F89451
S1131D308091C3069091C406A091C506B091C606D1
S1131D400196A11DB11D8093C3069093C406A09370
S1131D50C506B093C6068091C809882339F081501E
S1131D608093C809882311F40E94320D812F99278A
S1131D708FBFFF91EF91BF91AF919F918F917F9111
S1131D806F915F914F913F912F911F910F900FBED3
S1131D900F901F9018952091B903222361F0809130
S1131DA01001823019F080E090E007C080E090E0FC
S1131DB02150223010F481E090E099270895E8E75B
S1131DC0F1E06927660FF11DE60FF11DC895982F04
S1131DD0802D3196C89590250895982F8D5782307F
S1131DE068F48091B70381608093B70380E2892708
S1131DF08093E4048DE78093040802C09093040860
S1131E0061E070E084E098E00E940B0B992708954C
S1131E101F93162F9091F308913039F1913038F0D7
S1131E20923009F453C0933009F019C162C0882379
S1131E3009F446C18FB7F89499271092F5081092C7
S1131E40F4081092F3081092F205109218081092F8
S1131E50E80310923206109231068FBF81E080931E
S1131E60F30883E00E941B032BC1882309F028C1D7
S1131E7080913106909132060E94DF0E90933206D3
S1131E808093310683E08093F30880918D03982F2B
S1131E90917080FF02C0869502C0869586958170F8
S1131EA009F0DDC080918D03992311F0846001C095
S1131EB0826080938D0380918D03886180938D036C
S1131EC010928E038FEF80930201FAC0882309F0E9
S1131ED0C6C06093E80380913106909132060E9457
S1131EE0DF0E909332068093310683E08093F308EB
S1131EF0E7C09091F2059F3F09F4B1C0882371F1C6
S1131F00923008F4ACC0E091F408EE2309F4CDC09B
S1131F104E2F4150E42FFF27EC50F74F8281992731
S1131F20382F2227442311F4E2E002C0E42FE150C9
S1131F30FF27EC50F74F82819927282B392B80916A
S1131F403106909132062817390709F088C080E0DD
S1131F500E94F20C84E00E941B0381C0923008F4BA
S1131F606AC0E091F508FF27EC50F74F8281482FB3
S1131F705527342F20918D03822F8695869586953B
S1131F80837099278230910569F18330910519F0A6
S1131F900197C1F50BC0822F877E493009F48CC0AC
S1131FA0886080938D0340931A082CC0277E20619B
S1131FB020938D03493038F4473040F4442351F0E2
S1131FC0443031F409C0493019F406C089E005C031
S1131FD080E003C083E001C08AE080938E033093E5
S1131FE0020110C080918E03873260F4E0910701F2
S1131FF0F0910801E80FF11D408380918E038F5FFB
S113200080938E038091F508E82FFF27EC50F74F5B
S113201062818F5F8093F508833010F01092F50889
S1132020772780913106909132060E94DF0E9093BB
S11320303206809331068091F408E82FFF27EC5094
S1132040F74F12838F5F8093F408833010F010925F
S1132050F4088091F2058F5F8093F20531C08FB749
S1132060F89499271092F5081092F4081092F30846
S11320701092F205109218081092E803109232069A
S1132080109231068FBF80919E038D7F80939E03B3
S113209081E00E94F20C80918C03882389F084E013
S11320A08093F3080E948C0B0BC08091F808992749
S11320B0382F222742E03ACF806180938D038CCF62
S11320C01F9108951F920F920FB60F9211242F9310
S11320D03F934F935F936F937F938F939F93AF93AC
S11320E0BF93EF93FF9380919B0087FF42C0609161
S11320F09C00E091BA06F091BB06309719F18091EB
S1132100C4099091C509E80FF91F60830196909363
S1132110C5098093C4092091D4093091D509821747
S1132120930738F11092BB061092BA068091050805
S11321308330F9F080919A008F7780939A001092FF
S1132140050817C06E3719F460E081E010C0809173
S11321509E036D3721F4826080939E030AC081FF41
S113216005C08D7F80939E0380E2682780E00E94F3
S1132170080FFF91EF91BF91AF919F918F917F9144
S11321806F915F914F913F912F910F900FBE0F90E0
S11321901F901895982F8D57823068F480919E0374
S11321A0816080939E0380E28927809392048DE767
S11321B08093130802C09093130861E070E083E1F8
S11321C098E00E94BC0B9927089578941F920F926F
S11321D00FB60F921124FF920F931F932F933F93E7
S11321E04F935F936F937F938F939F93AF93BF931B
S11321F0CF93DF93EF93FF932091F1043091F20496
S11322008091FC089091FD082817390780F4E0912B
S1132210F305F091F405E20FF31F80812F5F3F4F28
S11322203093F2042093F1040E94B00BE5C01092A5
S1132230F4051092F3051092F30480919A008F7BB9
S113224080939A0080919E0380FF0EC08E7F8093BE
S11322509E03809192048093130861E070E083E10F
S113226098E00E94BC0BC8C08091F605843009F444
S11322709FC0853040F4823021F18330B8F581303D
S113228009F0B5C00DC0863009F4A0C0863008F44A
S113229096C0873009F4A1C0883009F0A8C0AAC04C
S11322A0809109080E94CA10182F83E08093F605D4
S11322B06091090880913F05909140050E94DF0ECE
S11322C010C0809193040E94CA10182F83E0809359
S11322D0F6056091930480913F05909140050E941A
S11322E0DF0E9093400580933F057FC0FFB6F894BE
S11322F0E091F004FF27EE0FFF1FE254F94F8081B5
S11323000E94CA10082F1091F004C12FDD27FE018E
S1132310EE0FFF1FE254F94F608180913F059091C9
S113232040050E94DF0E9093400580933F05409145
S1132330C9094F5F4093C909113091F58091980301
S11323408823C9F080919403E0918F03F091900366
S1132350E80FF11DE0818F5F8093940390919303C4
S1132360981730F482E08093BF0620E030E009C083
S11323702E2F332706C01093980380919703282F9C
S11323803327DE01AA0FBB1FFD01E354F94F8081FF
S1132390823031F04F3F21F0A254B94F2C9303C047
S11323A084E08093F605102F8F2D99278FBF1DC0D1
S11323B080913F050E94CA10182F85E00BC08091C0
S11323C040050E94CA10182F86E004C00E94F10B39
S11323D0182F87E08093F60508C09498959888E0B4
S11323E08093F6050E94F10B07C0112329F089E0C0
S11323F08093F6050E94E203FF91EF91DF91CF9164
S1132400BF91AF919F918F917F916F915F914F9108
S11324103F912F911F910F91FF900F900FBE0F903E
S11324201F9018951F920F920FB60F9211240F90C0
S11324300FBE0F901F9018951F920F920FB60F9218
S113244011240F900FBE0F901F9018951F920F929A
S11324500FB60F9211240F900FBE0F901F90189576
S11324601F920F920FB60F9211240F900FBE0F9070
S11324701F9018951F920F920FB60F9211240F9070
S11324800FBE0F901F9018951F920F920FB60F92C8
S113249011242F933F934F935F936F937F938F9365
S11324A09F93AF93BF93EF93FF9344B155B1789447
S11324B08FB7F89499272091C304322F3695317041
S11324C021708FBF2223D9F433988091FA0581308B
S11324D021F0823009F039C00AC0332351F05093FF
S11324E00808409307088AE20E941B032EC0332386
S11324F019F40E94D50829C01092FA0526C08FB796
S1132500F89499278FBF2FB7F894332786B1582FA3
S11325105770482F4072987D942B952B8074977B2D
S1132520982B90619F77892F992786B9887D842B72
S1132530852B87738061992786B9887D842B852BA9
S1132540877B8069992786B92FBFFF91EF91BF914F
S1132550AF919F918F917F916F915F914F913F9137
S11325602F910F900FBE0F901F90189578941F9283
S11325700F920FB60F9211240F900FBE0F901F9061
S1132580189578941F920F920FB60F9211240F9002
S11325900FBE0F901F90189578941F920F920FB64C
S11325A00F9211240F900FBE0F901F9018957894DE
S11325B01F920F920FB60F9211248F939F938CB595
S11325C09DB59F918F910F900FBE0F901F901895FE
S11325D078941F920F920FB60F9211240F900FBE92
S11325E00F901F9018958FEF0E942B08089508955F
S11325F008953FB7F89483B381709927282F8111E8
S113260021E0999922609A9924609B9928609C9969
S113261020619D9920629E9920649F992068832F50
S113262099278FBF822F992708950E94D005089576
S113263090E080912D06882309F491E081E09827A9
S1132640892F99270895089580E090E0089580E007
S113265090E0089580E090E0089508950895089525
S1132660089560E070E080E090E0089580E090E0FC
S113267008950895089580E090E0089580E090E042
S1132680089580E090E008950895089580E090E032
S1132690089580E090E0089508950895089580E0F5
S11326A090E0089580E090E0089580E090E008953F
S11326B080E090E008950895DF92EF92FF920F93E7
S11326C01F93CF93DF93EC017B01D42E0881112754
S11326D0102F002789819927082B192B0E94830921
S11326E00817190759F088819927982F8827298175
S11326F03327822B932B8F5F9F4FC1F48E819927B1
S1132700813819F0873C91F40CC099858091C609F1
S1132710891761F4E0918D04F0918E0481E086A321
S113272005C040E06D2DC7010E94FE32CE01DF914D
S1132730CF911F910F91FF90EF90DF9008951F9319
S1132740CF93DF93809123019927019664E070E091
S11327500E942943682F8093230110E0462F5527B8
S1132760DA01AA0FBB1FA40FB51FA752B64FCD9114
S1132770DC911197209799F0E62FE695E695E6957A
S1132780FF27E454F94F808199279A01277030700C
S113279002C0959587952A95E2F780FF0DC0CA017E
S11327A0019664E070E00E942943682F1F5F143093
S11327B0A9F6109323010FC060932301643058F4E9
S11327C0FD014281BE0182E00E94AB04882319F01E
S11327D08DE40E941B03DF91CF911F9108951F93F5
S11327E0CF93DF9380911E019927019669E070E0F1
S11327F00E942943682F80931E0110E0462F55271D
S1132800DA01AA0FBB1FA40FB51FAC5DBA4FCD915F
S1132810DC911197209799F0E62FE695E695E695D9
S1132820FF27E156F74F808199279A01277030706E
S113283002C0959587952A95E2F780FF0DC0CA01DD
S1132840019669E070E00E942943682F1F5F1930E8
S1132850A9F610931E010FC060931E01693058F44D
S1132860FD014281BE0183E00E94AB04882319F07C
S11328708EE20E941B03DF91CF911F9108950E9465
S11328802B080895EF920F931F9380911B018130C1
S113289019F489E090E015C083E080931B01C39A8A
S11328A0C4981092A1080E94D005AB01BC01EE248B
S11328B004E110E020E030E086E10E94B10580E010
S11328C090E01F910F91EF9008952F923F924F92B5
S11328D05F926F927F928F929F92AF92BF92CF92AC
S11328E0DF92EF92FF920F931F93CF93DF93CDB7B5
S11328F0DEB728970FB6F894DEBF0FBECDBF0E9497
S1132900D0051B012C016624772488249924AA2449
S1132910BB24CC24DD24EE24FF2400E010E0262F89
S1132920332D442D552D662D772D882D992D0E94FC
S11329307D3918165CF4222D332D442D552D662D2A
S1132940772D882D992D0E94D73933C0822D81701F
S113295089831A821B821C821D821E821F82188612
S113296001E0222D332D442D552D662D772D882DF4
S1132970992D0E94FA38A980A22ABB24B32ACC2418
S1132980C42ADD24D52AEE24E62AFF24F72A00E00F
S1132990082B10E0192B2A2D3B2D4C2D5D2D6E2D6F
S11329A07F2D802F912F0E94D7399B01AC010E946B
S11329B03F4220E030E04AE754E40E9481422896F6
S11329C00FB6F894DEBF0FBECDBFDF91CF911F913C
S11329D00F91FF90EF90DF90CF90BF90AF909F90BA
S11329E08F907F906F905F904F903F902F900895BD
S11329F09F92AF92BF92CF92DF92EF92FF920F938A
S1132A001F93CF93DF93982E5A016B01E90161E084
S1132A1081E00E94220E882309F03FC09092E204D4
S1132A20D601C5018E0D9F1DA01FB11F815090417D
S1132A30A040B04008F02FC061E080E00E94220E68
S1132A40882349F5C701D501FE01019724F00E94AE
S1132A5092430192FACFE199FECF8FB7F894992768
S1132A6010921C088FBF0E943C0E8091E2048823C0
S1132A7079F42FB7F89433278091CA099091CB0940
S1132A809093F9058093F8052FBF85E00E941B03FE
S1132A9080E090E004C00E943C0E81E090E0DF9171
S1132AA0CF911F910F91FF90EF90DF90CF90BF9047
S1132AB0AF909F9008954AE050E060E070E080E0BD
S1132AC00E94FD050895EF92FF920F931F93CF93F9
S1132AD0DF93982F8FB7F894E82E8091C503833045
S1132AE009F042C080911C01891709F03DC0809112
S1132AF09604882309F043C03BC0EF2DE695E69584
S1132B00E695FF274F2D5527EA56FB4F9A0127706C
S1132B10307081E090E002C0880F991F2A95E2F797
S1132B208095208128232083C093C40311C021965B
S1132B30C530D10511F4C0E0D0E0FC2E8C2F0E94EA
S1132B4092078823D1F6C017D10789F74FEF50E0D9
S1132B504093410581E08093C50389E20E941B03F1
S1132B60EFBE80E090E011C0EFBE81E090E00DC0C8
S1132B7085E080931C011092C5033798F1CF8091B2
S1132B80C403082F1127E801D2CFDF91CF911F9101
S1132B900F91FF90EF9008951F920F920FB60F922E
S1132BA011242F933F934F935F936F937F938F934E
S1132BB09F93AF93BF93EF93FF9321B181B13327D9
S1132BC094E0369527959A95E1F72170307099270E
S1132BD0689414F8969587951694E1F7817090702F
S1132BE04091A3085091A408281709F48AC04115FC
S1132BF0510539F0415050405093A4084093A30824
S1132C0006C08FEA91E09093A4088093A30831E072
S1132C100CC04F5F5F4F5093A4084093A30804C0B7
S1132C201092A4081092A30830E02091A208809189
S1132C30630099279695879581709070281709F4F9
S1132C4066C08091630099279695879581709070EE
S1132C508093A2082091BD09882341F0222319F012
S1132C6088ED90E021C08FEA91E01EC0222319F084
S1132C7087ED90E019C0109200061092FF0552C033
S1132C8080916300817099278093BD09882341F066
S1132C90222319F083E491E007C08CE690E004C09D
S1132CA0222339F084E491E0909300068093FF0599
S1132CB039C08BE690E0F8CF81E08093CF038FE3B7
S1132CC00E941B0333C08091FF059091000600977A
S1132CD011F001970CC08FEA91E009C08091FF05C3
S1132CE09091000621E08F3A920730F40196909378
S1132CF000068093FF051AC0109200061092FF058B
S1132D0015C081E04F3A580708F483CF89CF8091EA
S1132D10630081709091BD09981709F0B1CF3323F6
S1132D2091F6DCCF8091CF03882331F28EE30E94A9
S1132D301B03FF91EF91BF91AF919F918F917F9171
S1132D406F915F914F913F912F910F900FBE0F9014
S1132D501F90189580919F03882391F46091E50951
S1132D607091E6094091190880910F080E94F603BA
S1132D70882331F481E08093A20380939F03089514
S1132D808BE00E941B03089580919F03882371F4B4
S1132D9040E060E070E089E00E94F603882331F4AB
S1132DA081E080939F031092A10308958AE00E941A
S1132DB01B03089580911B018093B6098091E00361
S1132DC08F5F8093E003833019F486E40E941B0331
S1132DD008958091D803882379F488E080937D084E
S1132DE040E064E778E083E00E947905882321F4D9
S1132DF081E08093D803089581E50E941B03089520
S1132E001092BC036093BF038091BD03882339F4FF
S1132E108091BE03882319F48AE10E941B0308955C
S1132E200F931F9380911B08882371F110E001E038
S1132E3020911B08822F8023F9F0812F9927FC0110
S1132E40EE0FFF1FE80FF91FEF51FC4F4081518136
S1132E5011821082802F8095282320931B08112330
S1132E6019F0113049F405C063E0CA010E9400174B
S1132E7008C01092C20305C01F5F183028F4000F69
S1132E80D7CF000F1F5FD4CF1F910F9108958130CA
S1132E9081F0813028F08230A9F0833041F51DC0E3
S1132EA06C5F744021F51092D503442301F18BE447
S1132EB011C064567940D9F41092D6034423B9F072
S1132EC08EE408C06C53744091F41092D7034423E9
S1132ED071F08FE40E941B0308956457784039F41D
S1132EE01092D803442319F081E50E941B0308952E
S1132EF0EF92FF920F931F93E82E8B01F42E9927E4
S1132F00FC01EE0FFF1FE80FF91FE752F64F118285
S1132F1010820E949F134F2DB8018E2D0E944717D7
S1132F201F910F91FF90EF9008958091C80388231B
S1132F30E9F48091000880939106809102089091B1
S1132F40030880939306892F99278093920687E03C
S1132F508093900643E067E876E082E00E945B0796
S1132F60882321F481E08093C803089583E30E94B9
S1132F701B0308958091C9038823B9F480916304E5
S1132F808093160980910608809317098AE080933C
S1132F90150942E06CE079E083E00E945B07882336
S1132FA021F481E08093C903089587E30E941B0301
S1132FB00895CF93DF93CDB7DEB72C970FB6F8946F
S1132FC0DEBF0FBECDBFDE011196E4EBF9E086E073
S1132FD001900D928150E1F7DE011796FE013196C2
S1132FE086E001900D928150E1F78091D40388230B
S1132FF081F01092D40310929004A6EFB4E0FE0185
S1133000379686E001900D928150E1F78AE40E94A0
S11330101B032C960FB6F894DEBF0FBECDBFDF9115
S1133020CF9108958091D3038823E1F48091900493
S113303080934309A4E4B9E0E6EFF4E086E001906C
S11330400D928150E1F78BE08093420947E069E3F8
S113305079E088E00E945B07882321F481E0809373
S1133060D30308958AE40E941B0308958091D10339
S11330708823E9F480913006809381058091D709F3
S11330809091D80980938305892F9927809382058D
S113309089E08093800543E067E775E086E00E945D
S11330A05B07882321F481E08093D103089583E4AE
S11330B00E941B0308958091D2038823E9F4809130
S11330C0C4048093A1048091730590917405809346
S11330D0A304892F99278093A20488E08093A004F5
S11330E043E067E974E087E00E945B07882321F4EA
S11330F081E08093D203089585E40E941B03089520
S1133100569857981092340910922F06539A549A4D
S1133110579A80E00E94B0088FE00E94880287E1FD
S11331200E941B0308958FB7F89499272091730880
S11331302093100123E02093B9038FBF80911001E5
S1133140882319F0813041F403C00E94120A04C09C
S113315089B78E7F89BF04C0809110018130F1F45A
S11331608AE08093C1061092E50481E00E94A008E1
S11331704091C106552760E273E081E00E9452024B
S11331808091C0040E94880248E050E060E070E052
S11331908AE10E94FD0580E00E94B0080895982FFE
S11331A08091EB03981741F09093EB0384E08093B4
S11331B0D80481E40E941B0308951F920F920FB656
S11331C00F9211242F933F934F935F936F937F93A9
S11331D08F939F93AF93BF93EF93FF9380911001CD
S11331E0813099F48091B903833079F48091E504B6
S11331F08F3F29F08F5F8093E5048B3030F089B7DF
S11332008E7F89BF85E30E941B030E94CB0E882317
S1133210E9F189B78E7F89BF89B399279295829501
S11332208F7089279F70892781709070282F811152
S113323021E081E02827CD9B03C0822F8D7F02C02F
S1133240822F8260CE9B02C08B7F01C08460CF9BA3
S113325002C0877F01C088609927282F8093C90600
S11332608150823020F0243011F0283039F4822F3C
S11332700E94880281E08093A30308C01092A303F4
S113328080E00E94B0088FE00E948802FF91EF91D5
S1133290BF91AF919F918F917F916F915F914F916A
S11332A03F912F910F900FBE0F901F901895982F5C
S11332B08091E804882319F085E090E008959093C4
S11332C0F5057093EA046093E9044093CB04CB01C1
S11332D00E949509809395041092EF0481E08093F5
S11332E0E80485E10E941B0399270895CF93DF9397
S11332F0282F823018F081E090E029C09927EC0152
S1133300CC0FDD1FC80FD91FCF51DC4F88819981A5
S1133310892B19F085E090E01AC0798368834A8389
S113332080911501823018F480E090E010C0209361
S1133330150185E00E9457199927282F882329F021
S113334082E08093150119821882822F9927DF91D8
S1133350CF910895DF92EF92FF920F931F93CF9333
S1133360DF938FB7F894992710919A03C0919B0328
S1133370D0919C0320919D03D090EA038FBF173016
S113338009F41FC1183030F4112309F416C11430A4
S113339031F415C1183009F414C11930F9F016309C
S11333A0A9F0173038F4143079F0153078F411237B
S11333B041F012C0183069F0183058F0193061F437
S11333C00DC0422F4750FFC0422FFDC0422F4A502C
S11333D0FAC0422F4150F7C0193049F41092A003AB
S11333E08091E6068D7F8093E6068CE0D2C0FF24B0
S11333F081E0E82EE092A1038AE00E941B039091F1
S11334001A088091C604981709F4C5C09093C6049D
S1133410BE01665F7F4F163051F1173020F415302E
S113342009F0B9C006C0173041F1183009F0B3C033
S113343079C08091C203882309F0ADC000911301C3
S113344010911401D0931401C09313017093650477
S113345060936404F092D9044F2DBE0181E00E9470
S11334607619882311F4E092C203E80194C04F2D29
S1133470CE010E945C13EC018EC0898599278730A8
S113348009F443C0883070F48230D9F0833020F4DA
S1133490813009F080C010C08330C1F0863009F05B
S11334A07AC019C08930A9F1893088F18A3099F13C
S11334B08B3009F070C034C08A858093350988E365
S11334C068C08A8580931D018BE263C08A858093DE
S11334D0200180E35EC08A858093B3098B852C85A7
S11334E09927982F88273327822B932B909376053F
S11334F0809375058D858093E9038E8580938B0970
S11335008F858093C30980E444C082E342C084E48D
S113351040C082E43EC08A858093C80486E339C0F3
S113352089E437C089859927833071F0843018F491
S1133530823089F505C0873059F0883061F519C0AB
S11335408A858093220127C08A858093240123C021
S11335508A858093C7098B852C859927982F88277E
S11335603327822B932B9093EF058093EE0580E510
S113357010C08A858093FC058B852C859927982F0C
S113358088273327822B932B9093C1098093C009FA
S113359082E50E941B038FB7F894ED2DFF27EE0FF1
S11335A0FF1FED5FFE4FD183C08320918D03DD208B
S11335B011F02B7F0AC02D7F08C0235002CF2A5060
S11335C003CF295006CFF42E13CF20938D031092EE
S11335D0990399278FBFDF91CF911F910F91FF908E
S11335E0EF90DF900895FF920F931F93CF93DF9393
S11335F0182FEA01022F6983672F772768830E94B7
S113360083098B83892F99278A830C838FB7F89436
S1133610992720911A018FBF2D831E838F818823C0
S113362079F08091C2098F5F8093C20989871EA2B5
S11336308091C2098093C609D0938E04C0938D04EF
S1133640888590916109982B9093610981E20E9489
S11336501B038091BA039091BB03892B19F085E079
S113366090E055C0D093BB03C093BA03CE010E942F
S11336709509882311F4FF240CC0402FBE0180E07B
S11336800E9476199927F82E882319F481E08093F3
S1133690BC033885832F992784FF02C028E001C02A
S11336A020E085FF02C0246001C02B7F86FF03C099
S11336B0822F826002C0822F8D7F37FF02C081601B
S11336C001C08E7F882311F410E00CC0402FBE018E
S11336D080E00E94AB049927182F882319F481E015
S11336E08093BD03FF2011F0112351F481E08093F6
S11336F0BE0348E550E060E070E084E00E94FD0510
S1133700F11619F081E090E002C08F2D9927DF9126
S1133710CF911F910F91FF900895CF93DF93582F6E
S1133720FB01833018F081E090E031C0C82FDD2721
S1133730CC0FDD1FC055D94F88819981892B19F091
S113374085E090E024C079836883448380911701E5
S1133750833018F480E090E01AC086816081772776
S1133760762F662721813327622B732B5093170101
S1133770242FAF010E94F31A9927282F882329F0B8
S113378083E08093170119821882822F9927DF9191
S1133790CF9108951F939C01162F8091D9038823FC
S11337A041F56D3130F528C08D918193812F992792
S11337B087FD9095815F994FE817F907A9F78FEF77
S11337C080930D066FEF7FEF85E096E00E94AB09D2
S11337D087EC80930B06412F65E076E082E00E943F
S11337E08D1B882319F481E08093D90381E090E054
S11337F007C080E090E004C0D901EFE0F6E0D6CF46
S11338001F9108954FEF0E94CA1B08958091DE0313
S11338108823E9F480918F048093A6058091E304C2
S11338208093A7056FEF7FEF8EE995E00E94AB09C7
S113383081E88093A40540E06EE975E081E00E9490
S11338408D1B882339F481E08093DE03089580E2A0
S11338500E941B0308950F931F93CF93DF93082FA8
S1133860EB01E82FFF27EE0FFF1FE055F94F118200
S11338701082809117019927019663E070E00E94FD
S11338802943682F8093170110E0462F5527FA012A
S1133890EE0FFF1FE055F94FA081B181109799F009
S11338A0E62FE695E695E695FF27ED59F64F8081DC
S11338B099279A012770307002C0959587952A95AB
S11338C0E2F780FF0DC0CA01019663E070E00E9438
S11338D02943682F1F5F1330C1F61093170118C0D6
S11338E0609317016330A0F4FD01248133276C91A8
S11338F07727762F662781819927682B792BAD014D
S113390086810E94F31A882319F083E20E941B0324
S1133910013059F0013018F0023091F40CC0CF514D
S1133920D84071F41092C3030BC0CE59D54041F472
S11339301092DE0305C0C550D64011F41092D9038D
S1133940DF91CF911F910F9108952091BA03309187
S1133950BB034091BF038091C003481719F041E0B5
S113396050E001C055271092BB031092BA03109285
S1133970BF031092C00380911701833068F4E82FCD
S1133980FF27EE0FFF1FE055F94F60817181621729
S1133990730711F40E942B1C089580911701E82FDE
S11339A0FF27EE0FFF1FE055F94F6081718141E061
S11339B00E942B1C0895DF92EF92FF920F931F93A6
S11339C0CF93DF93082F7B01D42E9927FC01EE0FB0
S11339D0FF1FE80FF91FEF51FC4F118210828091F5
S11339E015019927019662E070E00E942943682F2F
S11339F08093150110E0462F5527DA01AA0FBB1F4B
S1133A00A40FB51FAF51BC4FCD91DC9111972097F6
S1133A1099F0E62FE695E695E695FF27E55EF74FE4
S1133A20808199279A012770307002C095958795F7
S1133A302A95E2F780FF0DC0CA01019662E070E0AA
S1133A400E942943682F1F5F1230A9F610931501B5
S1133A500FC060931501623058F4FD014281BE012C
S1133A6085E00E945719882319F08CE10E941B03FA
S1133A70002319F0013041F405C06D2DC7010E94E7
S1133A80001702C01092C203DF91CF911F910F91D2
S1133A90FF90EF90DF90089580911501282F332730
S1133AA0F901EE0FFF1FE20FF31FEF51FC4F60818E
S1133AB0718141E00E94DB1C08951092AB031092C7
S1133AC0AA038FB7F89499272091AE038FBF8091F2
S1133AD0AF03882349F4222339F48091EF049091B1
S1133AE0C504892B8093EF0485E10E941B0308958C
S1133AF08091C603882399F480911D018093D10598
S1133B0082E08093D00541E067EC75E080E00E949C
S1133B105B07882321F481E08093C60308958CE237
S1133B200E941B0308958330B1F1843028F481305E
S1133B30F1F0823038F510C0863009F43EC0873089
S1133B4020F4853009F057C02FC0873009F43EC0F7
S1133B50883009F050C045C0675C754009F04BC01F
S1133B601092C603442309F446C08CE237C068545B
S1133B70754009F040C01092C703442309F43BC0C8
S1133B8081E32CC067587640B1F51092C8034423F2
S1133B9091F183E323C06C50794069F51092C90315
S1133BA0442349F187E31AC06654784021F5109202
S1133BB0D003442301F181E411C067577540D9F45F
S1133BC01092D1034423B9F083E408C067597440C8
S1133BD091F41092D203442371F085E40E941B03F4
S1133BE008956953794039F41092D303442319F0AA
S1133BF08AE40E941B030895FF920F931F93F09091
S1133C001E018F2D9927FC01EE0FFF1FE80FF91FEE
S1133C10EC5DFA4F00811181118210820E94EF1332
S1133C2041E0B8018F2D0E94931D1F910F91FF90C9
S1133C300895EF92FF920F931F93CF93DF938B011D
S1133C40E42E8130D1F0813030F0823069F183305C
S1133C5009F063C046C01092BD034093C003809135
S1133C60BC03882309F059C08091BE03882309F05E
S1133C7054C08AE10E941B0350C0809111019091AD
S1133C8012016817790769F46091AE067091AF0666
S1133C904091C605C8010E945C1390931201809361
S1133CA011011092C10339C0F090230183E08F15F4
S1133CB0A0F18F2D9927FC01EE0FFF1FE80FF91FCC
S1133CC0E752F64F808191818617970731F511826B
S1133CD010820E949F134E2DB8018F2D0E9447170A
S1133CE01CC0F0901E0188E08F15B8F08F2D992725
S1133CF0FC01EE0FFF1FE80FF91FEC5DFA4FC081C6
S1133D00D181C617D70749F4118210820E94EF139C
S1133D104E2DBE018F2D0E94931DDF91CF911F91D7
S1133D200F91FF90EF900895FF920F931F93F090DF
S1133D3016018F2D9927FC01EE0FFF1FE80FF91FC5
S1133D40E453FB4F00811181118210820E94B1095A
S1133D5041E0B8018F2D0E94191E1F910F91FF9011
S1133D600895FF920F931F93CF93DF938091FE05E5
S1133D70882301F151E0F52E00E010E0CCECD4E012
S1133D809091FE05892F8F2169F0688179811982CC
S1133D9018828F2D809598239093FE0543E0802F01
S1133DA00E94191E0F5F1F4F23960830110511F052
S1133DB0FF0CE6CFDF91CF911F910F91FF900895F3
S1133DC00F931F93CF93DF930091DF032091E509B5
S1133DD03091E609109116011430B8F4812F992717
S1133DE0FC01EE0FFF1FE80FF91FE453FB4FC081E6
S1133DF0D181C217D30749F4118210820E94B109FC
S1133E00402FBE01812F0E94191EDF91CF911F9177
S1133E100F9108951F920F920FB60F9211242F93B2
S1133E203F934F935F936F937F938F939F93AF933E
S1133E30BF93EF93FF9321B181B13327329522953C
S1133E402F7023273F70232721703070992768949F
S1133E5014F8969587951694E1F7817090704091C7
S1133E60A3085091A408281709F48BC021E04F3A05
S1133E70520738F44F5F5F4F5093A4084093A30850
S1133E8004C01092A4081092A30831E00EC041505F
S1133E9050405093A4084093A30806C08FEA91E0D1
S1133EA09093A4088093A30830E02091A208809105
S1133EB0630099279695879581709070281709F467
S1133EC065C080916300992796958795817090705D
S1133ED08093A2082091BD09882341F0222319F080
S1133EE088ED90E021C08FEA91E01EC0222319F0F2
S1133EF087ED90E019C0109200061092FF0551C0A2
S1133F0080916300817099278093BD09882341F0D3
S1133F10222319F083E491E007C08CE690E004C00A
S1133F20222339F084E491E0909300068093FF0506
S1133F3038C08BE690E0F8CF81E08093CF038FE325
S1133F400E941B0332C08091FF059091000621E07E
S1133F508F3A920710F401960CC01092000610924A
S1133F60FF0523C08091FF0590910006009731F072
S1133F700197909300068093FF0517C08FEA91E0A4
S1133F80F8CF4115510509F082CF88CF80916300A5
S1133F9081709091BD09981709F0B2CF332399F637
S1133FA0E1CF8091CF03882339F28EE30E941B0373
S1133FB0FF91EF91BF91AF919F918F917F916F91FD
S1133FC05F914F913F912F910F900FBE0F901F90D3
S1133FD01895AF92BF92CF92DF92EF920F931F93F7
S1133FE05B016C010E94D005AB01BC01EE2496017B
S1133FF085018EE10E94B1051F910F91EF90DF9032
S1134000CF90BF90AF9008951F93182F8093CB0348
S11340100E94CF18112361F08091ED049091EE0479
S1134020909312088093110881E08093230512C0B5
S11340301092CA038FB7F89499271092CD038FBFBB
S11340408DE30E941B031092FB081BBC1ABCC29890
S11340501092230565E070E080E090E00E94E91F83
S11340601F9108958091C704882349F081E08093CB
S1134070030680E00E94042087E40E941B03089545
S11340801F939C01E62F892B19F489E090E076C0F8
S113409081E0203B380718F086E090E06FC0809103
S11340A06E0890916F08442319F0820F931F04C087
S11340B0821B930B80559E4F60EB71E00E94154369
S11340C0909312088093110810922E0681E0809339
S11340D02305E73920F086E98093CA0302C0E09300
S11340E0CA034093210181E08093CC031092CB0357
S11340F080E00E94CF180E94FE0665E070E080E038
S113410090E00E94E91F209121019091CA03992314
S113411079F48FB7F89499271092CD038FBF8DE36C
S11341200E941B031092FB081BBC1ABCC29824C03B
S11341301FB7F894809191048823D9F4222311F0B5
S1134140C19801C0C19A973920F086E98093FB0891
S113415002C09093FB088091FB0899279BBD8ABD00
S1134160C29A81E08093CD031092CE038CE30E9427
S11341701B03812F99278FBF80E090E01F91089542
S11341801F939C0181E0203B380718F086E090E003
S113419073C0309312082093110851E05093230503
S11341A050932E068091ED049091EE042817390760
S11341B071F45093CB0365E070E080E090E00E94DE
S11341C0E91F81E00E94CF1889E090E055C067396B
S11341D020F086E98093CA0302C06093CA03409327
S11341E0210181E08093CC031092CB0380E00E94F4
S11341F0CF180E94FE0665E070E080E090E00E9427
S1134200E91F209121019091CA03992379F48FB772
S1134210F89499271092CD038FBF8DE30E941B035E
S11342201092FB081BBC1ABCC29824C01FB7F89498
S1134230809191048823D9F4222311F0C19801C0FC
S1134240C19A973920F086E98093FB0802C09093C5
S1134250FB088091FB0899279BBD8ABDC29A81E027
S11342608093CD031092CE038CE30E941B03812F15
S113427099278FBF80E090E01F91089580910306F5
S1134280882309F03FC08091D0098330C1F0843085
S113429028F4813051F08230A9F50CC08530D9F072
S11342A0853090F0863071F51FC041E06AEF82E0FE
S11342B090E00EC040E06AEF84E090E009C041E085
S11342C06AEF8CE090E004C040E06AEF84E190E0A3
S11342D00E944020089541E06AEF80913609909150
S11342E037090E94C020089580E00E940420809134
S11342F03609909137099093CF098093CE0987E4CA
S11343000E941B0308951F938091B309813009F023
S11343104BC020918B099091E9039093CA03209399
S11343202101992379F48FB7F89499271092CD033A
S11343308FBF8DE30E941B031092FB081BBC1ABCA9
S1134340C29824C01FB7F894809191048823D9F4AB
S1134350222311F0C19801C0C19A973920F086E94F
S11343608093FB0802C09093FB088091FB08992777
S11343709BBD8ABDC29A81E08093CD031092CE0387
S11343808CE30E941B03812F99278FBF1092CB03CC
S113439080E00E94CF181092230565E070E080E071
S11343A090E00E94E91F20C0823059F440918B09AB
S11343B06091E90380917505909176050E944020F3
S11343C013C0833059F440918B096091E9038091C3
S11343D07505909176050E94C02006C0882321F4BB
S11343E08091C3090E9404201F910895AF92BF9247
S11343F0CF92DF92EF920F931F935B016C010E94A7
S1134400D005AB01BC01EE249601850188E10E9430
S1134410B1051F910F91EF90DF90CF90BF90AF90B7
S1134420089580911F01813019F489E090E0089586
S113443083E080931F012FB7F894332780916500A0
S11344408061809365002FBF1B981092E70364E19D
S113445070E080E090E00E94F62180E090E0089512
S113446080911F01882319F489E090E0089582E087
S113447080931F012FB7F8943327809165008F7EB6
S1134480809365002FBF1B981092E70364E170E0EE
S113449080E090E00E94F62180E090E00895809111
S11344A01F01843019F081E090E0089581E0809349
S11344B0D1090E94302240E951E060E070E089E1D6
S11344C00E94FD0580E090E00895EF920F931F9302
S11344D00E94D005AB01BC01EE2404E110E020E011
S11344E030E08BE10E94B1051F910F91EF90089588
S11344F0EF920F931F9380911B01882319F489E095
S113450090E015C082E080931B01C398C498109278
S1134510A1080E94D005AB01BC01EE2404E110E027
S113452020E030E086E10E94B10580E090E01F9138
S11345300F91EF90089580911D01823049F40E94FB
S11345407822893029F410921D018CE20E941B0309
S113455080911D01833051F40E944214893031F45A
S113456081E080931D018CE20E941B0308951F9338
S1134570162F9091C206913039F1913038F0923073
S113458009F458C0933009F00FC167C0882309F4B7
S113459047C18FB7F89499271092430510924205AA
S11345A01092C206109247051092B7061092C505E4
S11345B01092CD091092CC098FBF81E08093C2067E
S11345C08EE00E941B032CC1882309F029C180912D
S11345D0CC099091CD090E94DF0E9093CD09809370
S11345E0CC0983E08093C2062091C9068091A5037B
S11345F0982F917080FF02C0869502C0869586959B
S1134600817009F0D1C08091A503992311F08460D1
S113461001C082608093A5038091A503877E886092
S11346208093A5031092A6038FEF80930901209332
S1134630A703F6C0882309F0B7C06093C50580912D
S1134640CC099091CD090E94DF0E9093CD098093FF
S1134650CC0983E08093C206E3C0909147059F3F55
S113466009F4A2C0882371F1923008F49DC0E0914E
S11346704205EE2309F4CDC04E2F4150E42FFF270D
S1134680EE5BFA4F82819927382F2227442311F4B5
S1134690E2E002C0E42FE150FF27EE5BFA4F828193
S11346A09927282B392B8091CC099091CD09281773
S11346B0390709F079C080E00E94480B8FE00E941E
S11346C01B0372C0923008F45BC0E0914305FF27DE
S11346D0EE5BFA4F8281482F5527342F2091A50392
S11346E0822F8695869586958370992781309105CA
S11346F019F0029761F51BC0277E20612093A50362
S1134700443079F0453018F4442349F006C0842F2E
S11347108750823010F489E005C080E003C083E054
S113472001C08AE08093A6033093090110C08091F0
S1134730A603873260F4E0910E01F0910F01E80FB7
S1134740F11D40838091A6038F5F8093A60380911F
S11347504305E82FFF27EE5BFA4F62818F5F80935A
S11347604305833010F01092430577278091CC09DC
S11347709091CD090E94DF0E9093CD098093CC09CE
S113478080914205E82FFF27EE5BFA4F12838F5F7B
S113479080934205833010F01092420580914705C2
S11347A08F5F809347053CC089B78E7F89BF8FB7E1
S11347B0F89499271092A3038FBF8FB7F894992781
S11347C010924305109242051092C20610924705BA
S11347D01092B7061092C5051092CD091092CC091B
S11347E08FBF8091B7038D7F8093B70381E00E94D0
S11347F0480B80E00E94B0088FE00E9488028091FC
S1134800A403882369F084E08093C2060E94E00A2E
S113481007C0809146059927382F222742E03ACFD6
S11348201F9108951F920F920FB60F9211241F9398
S11348302F933F934F935F936F937F938F939F93A4
S1134840AF93BF93EF93FF935F9B4EC01CB1E09176
S1134850FE07F091FF073097F9F08091C904909119
S1134860CA04E80FF91F108301969093CA04809339
S1134870C9042091F4043091F50482179307A0F140
S11348801092FF071092FE0780913409833061F182
S113489057981092340928C01E3759F40E94CB0E41
S11348A0882311F18091A3038823F1F060E081E073
S11348B019C08091B7031D3721F482608093B70338
S11348C013C081FF05C08D7F8093B70380E2182752
S11348D00E94CB0E882341F08091A303882321F00A
S11348E0612F80E00E94B722FF91EF91BF91AF91B9
S11348F09F918F917F916F915F914F913F912F91F4
S11349001F910F900FBE0F901F901895DF92EF929A
S1134910FF920F931F93CF93DF93982F8FB7F89441
S1134920D82E8091B903833009F085C0E09010013E
S1134930E91609F080C08091CB06882309F089C06C
S11349407EC0EF2DE695E695E695FF274F2D55277A
S1134950E553F94F9A012770307081E090E002C06E
S1134960880F991F2A95E2F78095208128232083B8
S1134970C093B80311C02196C230D10511F4C0E030
S1134980D0E0FC2E8C2F0E9466088823D1F6C01735
S1134990D10789F74FEF50E04093730881E080938B
S11349A0B90386E10E941B0381E0E81609F03FC0C9
S11349B040E050E065EB70E00E94520281E00E940A
S11349C0A00835C040E050E065EB70E081E00E9453
S11349D0520281E00E94A00889B78E7F89BF8FB7F9
S11349E0F89499271092A3038FBF8FB7F89499274F
S11349F010924305109242051092C2061092470588
S1134A001092B7061092C5051092CD091092CC09E8
S1134A108FBF8091B7038D7F8093B70381E00E949D
S1134A20480B80E00E94B0088FE00E948802DFBE3D
S1134A3080E090E014C0DFBE81E090E010C082E02E
S1134A40809310011092B90381E0E81609F0C4CFF5
S1134A50B9CF8091B803082F1127E8018CCFDF91DB
S1134A60CF911F910F91FF90EF90DF900895AF9237
S1134A70BF92CF92DF92EF92FF920F931F93CF9347
S1134A80DF935B016C01C0E0D0E0ECECF6E07C2F3E
S1134A90608561FF4DC22081318142815381E48070
S1134AA0F58006811781D601C501821B930BA40BE7
S1134AB0B50B8E159F05A007B10708F439C260FF36
S1134AC003C06D7F608708C02E0D3F1D401F511F1E
S1134AD02083318342835383E72FFF27E232F1059A
S1134AE008F02CC2EA5BFF4FEE0FFF1F0590F49114
S1134AF0E02D09940E948309909302068093010695
S1134B0084E0AEC08FB7F89499271092F5081092FC
S1134B10F4081092F3081092F205109218081092FB
S1134B20E80310923206109231068FBF80919E03E3
S1134B308D7F80939E0381E00E94F20CFFC18BE085
S1134B40F4C189B78E7F89BF8FB7F89499271092E3
S1134B50A3038FBF8FB7F89499271092430510923F
S1134B6042051092C206109247051092B7061092A1
S1134B70C5051092CD091092CC098FBF8091B7035F
S1134B808D7F8093B70381E00E94480B80E00E94F0
S1134B90B0088FE00E948802D1C11092BE038091B8
S1134BA0BC03882309F0CAC18091BD03882309F09E
S1134BB0C5C18AE1BAC18091C303882309F0BEC18B
S1134BC080911E088095809327086FEF7FEF8FE117
S1134BD098E00E94AB0980E88093250840E06FE1EB
S1134BE078E080E00E948D1B882309F0A7C181E052
S1134BF08093C303A3C181E001C082E00E94E90C59
S1134C009DC184E0FBCF88E0F9CF80E1F7CF80E25B
S1134C10F5CF80E4F3CF80E8F1CF80911E088E7F3A
S1134C2003C080911E088D7F80931E0887C18091E8
S1134C301E088B7FF9CF80911E08877FF5CF809166
S1134C401E088F7EF1CF80911E088F7DEDCF80915D
S1134C501E088F7BE9CF80911E088F77E5CF80E017
S1134C600E9401086BC180911B01882309F466C16D
S1134C700E94421463C181E0F3CF80911F01882315
S1134C8009F45CC10E94112259C189B78E7F89BF82
S1134C9081E00E94862484E348C11FB7F894809180
S1134CA0CD03882309F430C1B09B11C08091CE0399
S1134CB08F5F8093CE0381E080939104C2988091AA
S1134CC0FB088D5F99279BBD8ABD8BE31BC11092A6
S1134CD0CE031AC18FB7F8949927109291048FBF0D
S1134CE0C29A2CC110912101C0911108D0911208CF
S1134CF08091C704882359F080910306882339F4EE
S1134D004AEF50E060E070E08FE10E94FD0585E02D
S1134D108093D80481E08093D60950C08091230504
S1134D20882309F40BC1813009F008C1E0912E06F3
S1134D302091110830911208EE2329F08091ED049E
S1134D409091EE0404C080916E0890916F08281B26
S1134D50390B8091CB038823C9F52E5F3F4F253053
S1134D60310508F0EBC081E08093CB030E94CF189B
S1134D708091CC03882309F4E1C08091D9078D7F09
S1134D808093D9071092CC0310912101C091ED04B6
S1134D90D091EE048091C704882359F080910306D2
S1134DA0882339F44AEF50E060E070E08FE10E941C
S1134DB0FD0585E08093D8041092D609D093BF09ED
S1134DC0C093BE091093FB0581E4AFC06091110844
S1134DD070911208EE2329F08091ED049091EE0475
S1134DE004C080916E0890916F089B01281B390BB9
S1134DF037FF16C0EE2351F08091ED049091EE043C
S1134E00AB01481B590B40555E4F0DC080916E0895
S1134E1090916F08AB01481B590B40555E4F08C079
S1134E20A901EE2329F08091ED049091EE0404C0D1
S1134E3080916E0890916F08861B970B97FD02C0B6
S1134E409C010FC0EE2329F02091ED043091EE0473
S1134E5004C020916E0830916F08261B370B205533
S1134E603E4F2417350718F41092210104C081E045
S1134E70809321019A01C90143E0880F991F4A9543
S1134E80E1F7220F331F280F391F409121012739E1
S1134E90310528F086E98093CA0396E914C0922F5D
S1134EA02093CA03222379F48FB7F8949927109298
S1134EB0CD038FBF8DE30E941B031092FB081BBC24
S1134EC01ABCC2983BC01FB7F89480919104882300
S1134ED0D9F4442311F0C19801C0C19A973920F044
S1134EE086E98093FB0802C09093FB088091FB083D
S1134EF099279BBD8ABDC29A81E08093CD0310920D
S1134F00CE038CE30E941B03812F99278FBF16C009
S1134F108091D0098F5F8093D00988E406C080E037
S1134F200E942B080E94A63283E50E941B0306C040
S1134F3021963996C232D10509F0A9CD81E00E94AB
S1134F401B03DF91CF911F910F91FF90EF90DF90A2
S1134F50CF90BF90AF900895EF92FF920F931F935D
S1134F608091C204882361F52091FE083091FF08E6
S1134F704091000950910109EFB7F894FF2760911F
S1134F809B0870919C0880919D0890919E08E090E8
S1134F901408F090150800911608109117086E0D6A
S1134FA07F1D801F911FEFBF2093FE083093FF08E1
S1134FB040930009509301091092C2040E94070E05
S1134FC00E94D0050E9437251F910F91FF90EF900A
S1134FD00895AF92BF92CF92DF92EF92FF920F9318
S1134FE01F930E94D0057B018C0187B78D7F87BFFB
S1134FF05FEFA52E5FEFB52E5FEFC52E5FE7D52ED1
S113500060E0ECECF6E0808581FF1CC0808191813A
S1135010A281B381A8019701281B390B4A0B5B0BB2
S1135020DA01C9012481358146815781281B390B56
S11350304A0B5B0B2A153B054C055D051CF4590115
S11350406A0161E0399637E0EE3FF307E1F6662343
S1135050D9F01A141B041C041D042CF0C801B70158
S11350600E94372511C0A092FE08B092FF08C0929A
S11350700009D092010981E08093C204A601950140
S1135080C801B7010E94070E1F910F91FF90EF9086
S1135090DF90CF90BF90AF90089580E00E94862467
S11350A0992708952F923F924F925F926F927F9229
S11350B08F929F92AF92BF92CF92DF92EF92FF9224
S11350C00F931F93CF93DF93CDB7DEB729970FB616
S11350D0F894DEBF0FBECDBFE82FFF27E435F105FE
S11350E008F06CC6E859FF4FEE0FFF1F0590F491CE
S11350F0E02D09948091BC06882309F0EAC55EC6B8
S11351000E94AC275BC60E94E92758C60E94010C86
S113511055C60E941C0652C68091DD068D7F809381
S1135120DD064CC60E944E0349C60E94440346C68F
S113513080919A00877F80939A0080919A008F7E55
S113514080939A003BC610929203109291038FB7FA
S1135150F8949927409195038FBF8091960381110C
S113516043E020918F033091900390919703109224
S11351709F03993009F422C61092A20381E0809320
S1135180A00390930F083093E6092093E509409318
S1135190DF034AE050E060E070E082E00E94FD0539
S11351A00DC60E94AA190AC60E94C41607C60E9408
S11351B0AA1604C60E94E01E01C68FB7F894109286
S11351C02C0620910B0940E0283009F441E030E03E
S11351D0293009F431E0442311F4332351F01092BF
S11351E00B09E0910406FF27EE0FFF1FE55FF74F61
S11351F0108299278FBF442311F4332319F180912E
S1135200BE048F5F8093BE048091B6068334A1F4FC
S11352109FB7F8942091DB048091DA04821741F05F
S1135220822F8F5F8093DB04863010F01092DB04B2
S1135230892F99278FBF0AC0A0E0442309F4A1E075
S113524071E006C0222311F010E068C0A0E070E015
S11352508FB7F89499272091A4038FBF222341F09C
S11352608FB7F89499272AE020930B098FBF43C086
S11352708FB7F894992760910B0840910D088FBF60
S11352808FB7F894282F332750E09091DA04809157
S1135290DB04981709F451E02FBF552349F5662321
S11352A039F55FB7F89482E080930B088FB7F894D0
S11352B0282F332740E09091DA048091DB0498177B
S11352C009F441E02FBF442311F080E006C0E091CF
S11352D0DB04FF27E652FB4F828180930C08852F65
S11352E099278FBF83E48093B606109204060BC0FF
S11352F04150423010F010E007C085E48093B606B8
S113530081E08093040611E0772341F08FB7F8948D
S11353109927A093AE038FBF0E94490380910B0984
S11353208A3019F40E94E00A49C5112309F446C5DC
S11353300E94220A8823F1F42FB7F894332710929D
S1135340EC041092EB041092B90681E080930B09EF
S11353502FBF0E94380B882309F430C50E944D28C2
S11353608FB7F894992729E020930B098FBF0E94E7
S1135370540A24C50E94540A21C50E9424061EC54D
S11353808091EF068D7F8093EF0618C50E948018E8
S113539015C50E94670312C5539854980FC50E94FF
S11353A05D1D0CC50E94F70409C580919504282F42
S11353B0332720FF17C08091EF0480FD13C081E0E4
S11353C08093C5046091E9047091EA044091CB0490
S11353D08091F5050E94680A882309F4EFC40E94AD
S11353E06C03ECC421FF17C08091EF0481FD13C04E
S11353F082E08093C5046091E9047091EA044091CD
S1135400CB048091F5050E94680A882309F4D6C468
S11354100E946C03D3C422FF17C08091EF0482FD65
S113542013C084E08093C5046091E9047091EA0498
S11354304091CB048091F5050E94680A882309F401
S1135440BDC40E946C03BAC423FF17C08091EF044B
S113545083FD13C088E08093C5046091E9047091D2
S1135460EA044091CB048091F5050E94680A8823E0
S113547009F4A4C40E946C03A1C41092E8044091EE
S1135480E9045091EA0420911501223008F096C4F1
S1135490822F9927FC01EE0FFF1FE80FF91FEF5130
S11354A0FC4F608171816417750709F087C440E07F
S11354B0822F0E94DB1C82C40E9493187FC40E9426
S11354C05B157CC4E199FECF8FB7F89499271092AD
S11354D01C088FBF73C40E94A51C70C40E941017BF
S11354E06DC40E944C1D6AC40E94B11E67C40E9410
S11354F0941E64C40E942C0661C40E94061C5EC4EF
S11355000E9482065BC40E94E60158C40E94CD1C1E
S113551055C40E94DA1652C48FB7F8949927209183
S1135520410520931C0123E02093C5038FBF809184
S11355301C018230B1F0833030F4882351F0813083
S113554009F03CC40AC0833081F0843009F036C4C9
S113555010C080E00E94790931C481E00E94790979
S11355602DC482E00E94790929C483E00E9479094C
S113557025C484E00E94790921C41092FA0500919F
S1135580070810910808809160098230A1F08330E7
S113559028F4882341F08130D1F409C0833079F0B4
S11355A08430A9F410C080E00E94631522C081E019
S11355B00E9463155CC082E00E94631596C083E07C
S11355C00E946315A2C084E00E946315AEC08230BD
S11355D009F48BC0833030F4882359F0813009F00A
S11355E0EDC345C0833009F490C0843009F0E6C3AC
S11355F09CC00937110528F08091A1088F5F809322
S1135600A1088091A1088B3008F4D8C380919A072F
S11356108D7F80939A07C49A80911B01823081F414
S113562010921B0180913809882329F410921D01DE
S11356300E948603C3C3109238090E948103BEC32B
S1135640833089F491E090931B0180913809882379
S113565029F490931D010E948603B0C31092380967
S11356600E948103ABC384E080931B01A7C3093765
S1135670110528F08091E7038F5F8093E703809101
S1135680E7038B3008F49AC38091AC078D7F809335
S1135690AC071B9A80911F01823081F410921F0184
S11356A08091D109882329F4109220010E948B0350
S11356B085C31092D1090E947C0380C3833089F48E
S11356C091E090931F018091D109882329F490934C
S11356D020010E948B0372C31092D1090E947C03A3
S11356E06DC384E080931F0169C38091940488236F
S11356F009F464C3109294041092000810930308F0
S1135700009302080E94900359C38091F7058823EF
S113571009F454C31092F7051092C404109374054D
S1135720009373050E94BA0349C3809101069091C6
S11357300206800F911F90930206809301062FB7F3
S1135740F89433270196AA27BB2780936F0590937B
S11357507005A0937105B09372052FBF4FB74983AD
S1135760F89420906F05309070054090710550902A
S113577072056624772488248EE4A82E03E8B02ECC
S1135780CC24DD24EE24FF2400E010E0222D332D70
S1135790442D552D662D772D882D90E00E94FC37E1
S11357A02A833B834C835D836E837F8388879987B9
S11357B0822E932EA42EB52E2401350100E20E94E0
S11357C0FA38A22EB32EC42ED52EA30192015695DB
S11357D04795379527952A0D3B1D4C1D5D1D57FF99
S11357E005C05F772F5F3F4F4F4F5F4F20936F058B
S11357F03093700540937105509372056981862F2B
S113580099278FBF822F8F70809301080E947103A4
S11358100E945B08D3C20E949B22D0C20E94781DC2
S1135820CDC2BFE9CB2EB8E0DB2EEE24F601808199
S1135830882329F11E2DFF2401E0F6012081802F09
S11358408223B1F0812F9927FC01EE0FFF1FE80F8F
S1135850F91FEC5DFA4F6081718111821082802FF3
S113586080952823F601208343E0812F0E94931D15
S1135870F3941F5FF8E0FF1611F0000FDECF0894D9
S1135880C11CD11C48E0E40E60E1E61609F496C29E
S1135890CDCF0E94FC1D92C280911F018093B40958
S11358A08091E0038F5F8093E003833009F086C228
S11358B00E94BF0383C280912001823041F40E9480
S11358C03022893021F4109220010E948B038091B0
S11358D02001833009F072C20E941122893009F03C
S11358E06DC281E0809320010E948B0367C2809186
S11358F0C7038823B1F4809120018093520583E08B
S11359008093510541E068E475E081E00E945B0703
S1135910882321F481E08093C70350C20E948B0343
S11359204DC20E948B034AC20E941D0847C20E94B6
S1135930951744C20E94950341C28091BE0781FF1E
S11359403DC28091C106882309F438C281508093F6
S1135950C1061092E5040E94AC086091C106772745
S113596080E293E00E94820268E070E080E090E0D0
S11359700E94F0060E94D00821C29091C804809130
S1135980C104882309F01AC29093C0048FB7F89415
S1135990282F3327122F8091B9038823A1F481E0A3
S11359A08093B903809373082FBF8FB7F894282F7F
S11359B033278091C206882311F02FBF17C02FBF51
S11359C00E947A0813C081E00E946608882319F0B7
S11359D085E090E007C08091CB0682608093CB067F
S11359E080E090E01FBF892B09F0E8C181E080933B
S11359F0C10480933309E2C10E94BA17DFC18091C8
S1135A0035090E942B08DAC12091ED043091EE048F
S1135A108091CA06882309F4D1C11092CA06109253
S1135A2030063093D8092093D7090E94AC03C6C12D
S1135A300E94F606C3C10E946522C0C18091C707B7
S1135A408D7F8093C707BAC18FB7F89499272091A7
S1135A50A3083091A4084091FF05509100068FBF20
S1135A6030936F0820936E085093EE044093ED0436
S1135A70A5C10E943220A2C10E9483219FC18091AE
S1135A80D003882361F58091D804809350088091D5
S1135A90BE099091BF0980935208892F992780935A
S1135AA0510880910A08809353088091FB058093E4
S1135AB054088091EB038093550886E080934F0847
S1135AC047E066E478E085E00E945B07882321F4E0
S1135AD081E08093D00372C10E94A7036FC10E942A
S1135AE0A7036CC10E94B10369C10E94361866C144
S1135AF00E942608882309F061C181E08093F7059C
S1135B005DC10E945B185AC10E94D91757C11092F7
S1135B10C7048091CE099091CF099093B9098093DD
S1135B20B8098091E0038F5F8093E003833009F02C
S1135B3045C10E94BF0342C10E943E213FC194E07F
S1135B409093B40986E08093B5099093B609809345
S1135B50B7091092B9091092B80980911B018430D9
S1135B6061F481E0809338090E94782240E951E091
S1135B7060E070E087E10E94FD050E944F2241E051
S1135B804093C7048FB7F89499272091FF0530916B
S1135B9000068FBF30933709209336098FB7F894E6
S1135BA099272091CF038FBF222309F46AC0409321
S1135BB0030620913609309137092233310530F438
S1135BC01092CF091092CE0940E00BC080EB91E017
S1135BD0821B930BC29748F41092CF091092CE09FE
S1135BE041E06AEF80E090E047C0C9018C569040E4
S1135BF0EFEF8F3C9E0784F0C29774F48CE690E03C
S1135C009093CF098093CE092D36310570F541E08C
S1135C106AEF8CE690E030C0C901885D9040FFEFE8
S1135C208F3C9F0784F0C29774F488ED90E09093C2
S1135C30CF098093CE09293D3105B8F441E06AEFDC
S1135C4088ED90E019C0C901845491404FEF8F3C16
S1135C509407A4F0C29794F484E491E09093CF095C
S1135C608093CE092554314018F040E06AEF04C017
S1135C7041E06AEF84E491E00E94C0200E94C403E2
S1135C8004C04093D0090E94C90381E08093D403E7
S1135C9095C00E94121892C08091D5038823B1F454
S1135CA0809122018093060582E08093050541E0FE
S1135CB06CEF74E080E00E947905882321F481E090
S1135CC08093D5037BC00E94CE0378C00E94CE038C
S1135CD075C0E1E0FE2E00E010E079EDC72E79E01A
