:100000000C9494020C9485180C9435190C943F1997
:100010000C9449190C9453190C945D190C9467199C
:100020000C9471190C94B3020C94B3020C949D19A6
:100030000C947C190C9487190C94AE190C94CF1164
:100040000C9411120C94B3020C949A130C94B302F6
:100050000C942B140C94C51D0C94B3020C94B30295
:100060000C9492190C94A71D0C941F1B0C94911DB9
:100070000C949C1D0C94BA1D0C94D4160C94B302D1
:100080000C9440170C94B3020C94B302A922B12231
:10009000BB22DF22E122F3220F2311231323152396
:1000A000172319231B231D232123252329232D2334
:1000B0003123352339233D23432345234C23502328
:1000C00057235F23682372234F24B424422532260A
:1000D0003B264226642669267526A126E926F326B4
:1000E0003827BC286A2973297A29A029A529A92992
:1000F000D5293F2A202BEB2B0F2C142C252C492CF7
:10010000862CB42CC52CE72CF52C032D1F2D552D3A
:100110006C2D8E2D9F2DA72DC82DD92DFB2D0C2E8E
:10012000422E592E6F2EBE2EE32E322F682F2034F2
:10013000203420342034762F862FD32F08311831E5
:1001400034315031803183319B31D2312034EA3126
:10015000203402321E324A3266328432A032AA324F
:10016000CE32E13215332A334A33523320346F33DF
:1001700079339D33B433C033CB33E633FE3305A834
:100180004CCDB2D44EB93836A9020C50B9918688FC
:10019000083CA6AAAA2ABE000000803F0000211049
:1001A000422063308440A550C660E77008812991E1
:1001B0004AA16BB18CC1ADD1CEE1EFF13112100289
:1001C00073325222B5529442F772D6623993188331
:1001D0007BB35AA3BDD39CC3FFF3DEE36224433455
:1001E00020040114E664C774A44485546AA54BB581
:1001F00028850995EEE5CFF5ACC58DD55336722629
:1002000011163006D776F6669556B4465BB77AA7D0
:1002100019973887DFF7FEE79DD7BCC7C448E55874
:100220008668A7784008611802282338CCC9EDD920
:100230008EE9AFF9488969990AA92BB9F55AD44AC8
:10024000B77A966A711A500A333A122AFDDBDCCB70
:10025000BFFB9EEB799B588B3BBB1AABA66C877C94
:10026000E44CC55C222C033C600C411CAEED8FFDC0
:10027000ECCDCDDD2AAD0BBD688D499D977EB66E68
:10028000D55EF44E133E322E511E700E9FFFBEEF10
:10029000DDDFFCCF1BBF3AAF599F788F8891A981D2
:1002A000CAB1EBA10CD12DC14EF16FE18010A100BC
:1002B000C230E3200450254046706760B9839893AC
:1002C000FBA3DAB33DC31CD37FE35EF3B10290120C
:1002D000F322D2323542145277625672EAB5CBA578
:1002E000A89589856EF54FE52CD50DC5E234C3245C
:1002F000A01481046674476424540544DBA7FAB74C
:100300009987B8975FE77EF71DC73CD7D326F236AB
:100310009106B01657667676154634564CD96DC997
:100320000EF92FE9C899E9898AB9ABA944586548FB
:1003300006782768C018E1088238A3287DCB5CDBEB
:100340003FEB1EFBF98BD89BBBAB9ABB754A545A4B
:10035000376A167AF10AD01AB32A923A2EFD0FEDB7
:100360006CDD4DCDAABD8BADE89DC98D267C076C9B
:10037000645C454CA23C832CE01CC10C1FEF3EFF8B
:100380005DCF7CDF9BAFBABFD98FF89F176E367EEB
:10039000554E745E932EB23ED10EF01E00081C180E
:1003A000141052756E6E696E67205B204944203DC3
:1003B000202569205D0A0025693A2025692061749D
:1003C000202566207365630A00546F7069632025D9
:1003D00073206E6F772072656769737465726564E8
:1003E0000A00546F70696320257320616C72656127
:1003F0006479206578697374730A0048616E646C6F
:100400006572206973206E6F7720737562736372F3
:100410006962696E67206F6E20746F706963202552
:1004200073200A0048616E646C6572202569206142
:100430006C72656164792073756273637269626559
:100440007320746F20746F7069632025730A004DE8
:10045000656D6F7279206E6F77206C6F636B65646A
:100460002C20746F74616C207573616765203D206A
:10047000256920767320616C6C6F636174656420FC
:100480003D2025692062797465730A004552524FF8
:10049000523A20747279696E6720746F20616C6CB7
:1004A0006F63617465206D656D6F72792077686523
:1004B0006E206C6F636B6564212121210A00455217
:1004C000524F523A206F7574206F66206D656D6FC4
:1004D000727921212121202D20616C6C6F63617460
:1004E00065206D6F726520617420636F6D70696C3B
:1004F000652074696D652E2E2E0A004552524F52AA
:100500003A2043504720554E535441424C452120F8
:10051000783D256620763D256620286D6F64756CD4
:100520006520256929200A0011241FBECFEFD0E1E4
:10053000DEBFCDBF11E0A0E0B1E0E0E3FEE900E006
:100540000BBF02C007900D92A03CB107D9F71CE089
:10055000A0ECB1E001C01D92AA38B107E1F70E94FA
:1005600099340C94164F0C9400008FB7F8940895AA
:100570008FBF0895813011F4E0E021C0823011F482
:10058000E1E01DC0843011F4E2E019C0883011F4BC
:10059000E3E015C0803111F4E4E011C0803211F4C1
:1005A000E5E00DC0803411F4E6E009C0803811F4B4
:1005B000E7E005C08F3F11F0E3E601C0EFEFF0E0A8
:1005C000EE0FFF1FE95EFD4F83E090E09183808393
:1005D0000895813011F4E0E021C0823011F4E1E0AF
:1005E0001DC0843011F4E2E019C0883011F4E3E05A
:1005F00015C0803111F4E4E011C0803211F4E5E05F
:100600000DC0803411F4E6E009C0803811F4E7E051
:1006100005C08F3F11F0E3E601C0EFEFF0E0EE0F11
:10062000FF1FE95EFD4F81E090E091838083089594
:100630009C01E199FECF3FBB2EBBE09A8DB308959C
:10064000FC0180819181892B21F00190F081E02DC6
:10065000099482E082830895FC016115710511F40B
:1006600081E0089580917B0690917C06892B11F0A2
:1006700085E00895F0937C06E0937B0670939C07D9
:1006800060939B07109239041092380481E08093A4
:10069000CD065E9A569A208181E090E090933904CD
:1006A000809338048FB7F8942CB95E9A8FBF80E09E
:1006B0000895982F8D57823068F48091E60181600B
:1006C0008093E60180E2892780931C058DE7809363
:1006D000010902C09093010981E099E061E070E0B6
:1006E0000E942C030895FC016115710511F481E04D
:1006F000089580917F0690918006892B11F085E006
:100700000895F0938006E0937F067093310B609319
:10071000300B109228051092270581E0809329055F
:1007200080919B00806480939B0080919A008064FC
:1007300080939A00208181E090E090932805809337
:1007400027059FB7F89420939C0080919B008064BC
:1007500080939B009FBF80E00895982F8D57823033
:1007600068F48091D10181608093D10180E2892772
:10077000809395048DE780930F0902C090930F0931
:100780008FE099E061E070E00E9473030895E82F24
:100790008FB59E2F990F20E830E002C03595279540
:1007A0009A95E2F7822B8FBDE13019F0E23029F4FF
:1007B00002C0BE9A07C0BF9A07C0E13019F0E2300C
:1007C00021F402C0C69801C0C79877BD66BDE1306C
:1007D00019F0E23041F403C059BD48BD089550936B
:1007E0007900409378000895813089F481E065EBC9
:1007F00070E040E050E00E94C7038FB58F7D8FBD51
:1008000082E064E670E046E450E00E94C703089589
:1008100080FF02C0D89A01C0D89881FF02C0D99A3F
:1008200001C0D99882FF02C0DA9A01C0DA9883FF2A
:1008300002C0DB9A0895DB980895982F2FB7F8949B
:10084000E82FF0E0EF52F94F80818F3FA9F48091BB
:10085000580C891789F08091C50B8F3F19F490933C
:10086000C50B06C0E091580CF0E0EF52F94F9083B1
:100870009093580C80E001C085E02FBF08951F932E
:100880001FB7F89480910D09882341F482E00E94FB
:100890001D04882319F481E080930D091FBF1F9167
:1008A0000895282F8091C5019091C601892B11F0E0
:1008B00085E008955FB7F894293038F4273068F45C
:1008C000222339F0243039F402C0293021F43AE0EF
:1008D00005C033E003C030E001C039E03093C80107
:1008E0001092C9017093C4016093C30182E090E04B
:1008F0009093C6018093C5012093CB011092CA0149
:10090000263099F0273038F4243091F0253068F4FF
:10091000222349F006C0283051F0283040F0293019
:1009200039F040E005C0495F03C0465F01C04F5F3A
:10093000340F3093C70131E03093F00B9091C50430
:100940009F5F9093C5045FBF4FB7F8948091920763
:10095000882311F080E009C0309392072093930719
:100960003093D3049093C20481E04FBF882321F0D9
:100970000E943F0480E008951092C6011092C501C4
:1009800081E00895CF93DF93282F843010F091E019
:100990003DC0C82FD0E0FE01EE0FFF1FEC0FFD1F82
:1009A000EA5FFA4F80819181892B11F095E02EC08A
:1009B00071836083428380911C01843010F490E045
:1009C00025C020931C01213039F0213038F022302D
:1009D00039F0233049F406C088E007C087E005C03D
:1009E00085E003C086E001C080E00E945104982F9A
:1009F000882361F084E080931C01FE01EE0FFF1F4D
:100A0000EC0FFD1FEA5FFA4F11821082892FDF91F0
:100A1000CF910895882319F08130A1F408C0109275
:100A20000E094093960B88E20E941D0408951092CF
:100A30007E054093D8048091D204882319F487E27C
:100A40000E941D040895EF92FF920F931F93F82FB9
:100A50007A018B019FB7F894209196073091970700
:100A6000409198075091990782B706B600FE05C0DD
:100A70002F5F3F4F4F4F5F4F82B79FBFE9E0FE9F11
:100A8000F0011124E056F84F829586958695837083
:100A900090E0A0E0B0E062E0220F331F441F551F3A
:100AA0006A95D1F7822B932BA42BB52B808391834E
:100AB000A283B383E482F5820683178380858E7FC9
:100AC0008260808781E00E941D041F910F91FF903A
:100AD000EF9008951F931FB7F89480911101823011
:100AE000A1F48091E901813021F485E10E941D0487
:100AF00009C0823051F4809181098093110183E013
:100B00008093E9011FBF80E002C01FBF81E01F91F9
:100B10000895982F4FB7F8948091E0018823B1F59C
:100B20009923B1F581E08093E00180910A018093DF
:100B3000E1012091D40121702093220580910F01C1
:100B4000909110019093E3018093E2018091D5018F
:100B50008093E40130E0222309F431E02091D401B4
:100B6000267EE32FF0E0EE0FFF1FE55FFE4F808152
:100B700091819093100180930F01232B2093D40136
:100B80008091D6018093E50181E00CC0992349F062
:100B90008091D40180FF02C08B7F01C08D7F809344
:100BA000D40180E04FBF882319F084E10E941D0426
:100BB000089589B78E7F89BF8FB7F8941092D201BC
:100BC0008FBF8FB7F8941092800510927F05109216
:100BD00095071092860510928807109200061092D1
:100BE000520C1092510C8FBF8091E6018D7F809343
:100BF000E60181E00E9489059FB7F89489B78E7F4E
:100C000089BF81E088BFEAE6F0E08081826080836E
:100C100080818E7F808389B7816089BF9FBF8FE08D
:100C20000E9408040895982F4FB7F8948091CC0142
:100C3000882391F5992391F581E08093CC018091EF
:100C400003018093CD012091C10121702093010502
:100C500080910801909109019093CF018093CE017A
:100C60008091C2018093D00190E0222309F491E0A9
:100C70008091C101867EE92FF0E0EE0FFF1FEC5F4F
:100C8000FE4F208131813093090120930801892B87
:100C90008093C10181E00CC0992349F08091C1018A
:100CA00080FF02C08B7F01C08D7F8093C10180E0F7
:100CB0004FBF882319F08CE00E941D040895982FDF
:100CC0004FB7F8948091F601882391F5992391F517
:100CD00081E08093F601809112018093F7012091C9
:100CE000EB0121702093BD048091170190911801B0
:100CF0009093F9018093F8018091EC018093FA01BF
:100D000090E0222309F491E08091EB01867EE92FA7
:100D1000F0E0EE0FFF1FED5EFE4F2081318130933A
:100D2000180120931701892B8093EB0181E00CC0FF
:100D3000992349F08091EB0180FF02C08B7F01C0B5
:100D40008D7F8093EB0180E04FBF882319F08BE10A
:100D50000E941D040895853041F1863070F4823080
:100D6000F1F0833028F48823C1F0813051F513C0AD
:100D70008330B9F0843029F516C08830E1F089302D
:100D800028F48630A1F08730E1F413C08930A9F04F
:100D90008A30B9F414C08FE0089581E0089582E0AC
:100DA000089583E0089586E0089589E0089580E13C
:100DB000089587E0089588E008958DE008958BE018
:100DC000089580E00895FF920F931F93CF93DF93D0
:100DD000282F8B01F42E8B3010F091E02BC090E087
:100DE000EC01CC0FDD1FC80FD91FC65ADA4F88811E
:100DF0009981892B11F095E01DC0798368834A831E
:100E000080911B018B3010F490E014C020931B01E3
:100E1000822F0E94AB06F801818780E0B8014F2D38
:100E20000E94C204982F882329F08BE080931B0135
:100E300019821882892FDF91CF911F910F91FF9016
:100E40000895DF93CF93CDB7DEB72A970FB6F89406
:100E5000DEBF0FBECDBFE7E1F2E01192119282E05A
:100E6000E732F807D1F72A960FB6F894DEBF0FBE27
:100E7000CDBFCF91DF9108958CE144E650E060E072
:100E800070E00E94230508951F931FB7F894809186
:100E9000220C882341F486E10E941D04882319F462
:100EA00081E08093220C1FBF1F910895282F80910D
:100EB000EF019091F001892B11F085E008955FB763
:100EC000F894243051F0253018F4222341F009C061
:100ED000822F8750823028F406C03AE005C033E004
:100EE00003C030E001C039E03093F2011092F30109
:100EF0007093EE016093ED0182E090E09093F00139
:100F00008093EF012093F5011092F401253089F0D0
:100F1000263028F4222359F0243039F40DC027302C
:100F200051F0273030F0283031F040E005C0495F03
:100F300003C0465F01C04F5F340F3093F1015FBFC4
:100F40009FB7F89480918606882311F080E005C051
:100F500081E080938606209387069FBF882321F037
:100F60000E94440780E008951092F0011092EF0172
:100F700081E00895DB01542FFB01339681831396A2
:100F80009C93139784E686838091830790918407CE
:100F9000892B11F095E045C0709384076093830717
:100FA000448380911A018823D9F1468113963C919C
:100FB000139720E0818190E0822B932B10921A01ED
:100FC000818313969C9313974683548380912F04B7
:100FD00090913004892B11F095E01AC07093300481
:100FE00060932F0450933104809119018823C1F03C
:100FF0001092190180E0452F0E945607982F8823F0
:1010000081F081E0809319011092300410922F0436
:1010100081E080931A01109284071092830701C027
:1010200090E0892F0895EF92FF920F931F93F82F6E
:101030007A018B019FB7F89420919607309197071A
:10104000409198075091990782B706B600FE05C0F7
:101050002F5F3F4F4F4F5F4F82B79FBFE9E0FE9F2B
:10106000F0011124E056F84F82958695869583709D
:1010700090E0A0E0B0E062E0220F331F441F551F54
:101080006A95D1F7822B932BA42BB52B8083918368
:10109000A283B383E482F58206831783808583600D
:1010A000808781E00E941D041F910F91FF90EF90B7
:1010B00008951F93282F4FB7F89480910302882337
:1010C00021F581E08093030220937D054FBF8FB708
:1010D000F894379A8FBF1FB7F89480912601863015
:1010E00089F480910302813021F488E30E941D0479
:1010F00009C0823039F480917D058093260183E018
:10110000809303021FBF80E01AC0822F86958695C8
:101110008695E82FF0E0EA53FB4F3081277081E09D
:1011200090E0982F01C0990F2A95EAF7892F832321
:1011300011F085E003C0932B908380E04FBF1F9197
:101140000895823099F0833028F4882359F0813053
:1011500039F40AC0843071F0843050F0853071F079
:1011600081E0089580E007C081E005C082E003C00F
:1011700083E001C084E00E945908089585E00E9440
:1011800059080895CF93DF93282FDB01883010F0A2
:1011900091E053C0C82FD0E0FE01EE0FFF1FEC0F0F
:1011A000FD1FE35AF34F80819181892B11F095E067
:1011B00044C071836083428380912001883010F4A1
:1011C00090E03BC0209320012330B1F0243028F47C
:1011D000213061F0223070F40BC0253089F02530C9
:1011E00068F0263079F0273089F40EC082E00FC015
:1011F0008FE00DC083E00BC087E009C08AE007C024
:101200008DE005C08EE003C088E001C080E0199643
:101210008C93199781E0BD010E94C204982F882306
:1012200061F088E080932001FE01EE0FFF1FEC0FBC
:10123000FD1FE35AF34F11821082892FDF91CF9166
:1012400008951F93282F4FB7F8948091E9018823C0
:10125000A1F491E09093E901209381094FBF1FB75A
:10126000F89480919507882319F40E946A0502C0BA
:1012700090932D0B1FBF80E01AC0822F8695869514
:101280008695E82FF0E0E156F84F3081277081E035
:1012900090E0982F01C0990F2A95EAF7892F8323B0
:1012A00011F085E003C0932B908380E04FBF1F9126
:1012B000089580912701882311F489E0089582E040
:1012C000809327019FB7F894809165008F7E80936B
:1012D00065009FBF1B981092330488E144E150E001
:1012E00060E070E00E94230580E00895809127016E
:1012F000813011F489E0089583E0809327019FB73E
:10130000F894809165008061809365009FBF1B9871
:101310001092330488E144E150E060E070E00E9404
:10132000230580E0089580912501813011F489E042
:10133000089583E080932501C39AC4981092AB0A64
:1013400086E144E150E060E070E00E94230580E027
:1013500008951F93982F1FB7F8948091030283304C
:1013600009F04CC080912601891709F047C080918F
:10137000C604882339F486E0809326011092030284
:10138000379839C080910202682F70E09B012F5F6F
:101390003F4FA1E0B0E02630310511F420E030E00D
:1013A000822F922F9770AD0102C0440F551F9A955E
:1013B000E2F7869586958695E82FF0E0EA53FB4F95
:1013C0009081892F842341F0622F842F8095892377
:1013D00080832093020207C02617370719F02F5F7A
:1013E0003F4FD9CF6FEF60937D0581E0809303027B
:1013F00088E30E941D041FBF80E002C01FBF81E080
:101400001F9108958091C20B823079F0833030F4BF
:10141000882309F457C0813081F409C0843029F051
:10142000843038F0853049F406C034E00CC033E035
:101430000AC031E008C030E006C0863018F050E045
:101440003FE102C03FE151E0863010F040E001C0D2
:1014500048E06FB7F8948091D5048E7F8093D504CF
:1014600087B1282F2F71829586958695837058179E
:1014700019F080E090E00AC0832F8850863120F474
:1014800080E090E0321711F481E090E0982F9170A5
:10149000990F8091D50481783F71232F220F220F5D
:1014A000892B822B8093D5045295550F550F507C74
:1014B000532B57B9483009F447E04770486D46B997
:1014C0006FBF089532E0BFCF1F931FB7F89480918C
:1014D000BB06882341F48DE00E941D04882319F483
:1014E00081E08093BB061FBF1F910895382FFB0139
:1014F0008091D9019091DA01892B11F085E008954E
:101500005FB7F894343051F0353018F4332341F09C
:1015100009C0832F8750823028F406C02AE005C016
:1015200023E003C020E001C029E02093DC011092F9
:10153000DD01F093D801E093D70182E090E0909331
:10154000DA018093D9013093DF011092DE0135304A
:1015500089F0363028F4332359F0343039F40DC093
:10156000373051F0373030F0383031F040E005C0DE
:10157000495F03C0465F01C04F5F240F2093DB012A
:101580006085962F80E064FD88E095FF02C084604E
:1015900001C08B7F96FF02C0826001C08D7F67FF14
:1015A00002C0816001C08E7F80938D065FBF9091E5
:1015B0008D062FB7F89480910A09882311F080E0F6
:1015C00007C081E080930A0930930B099093890743
:1015D0002FBF882321F00E94640A80E008951092B2
:1015E000DA011092D90181E00895CF93DF93282F7B
:1015F000823010F091E024C090E0EC01CC0FDD1FB0
:10160000C80FD91FC853DB4F88819981892B11F0EE
:1016100095E016C0798368834A8380911F018230E8
:1016200010F490E00DC020931F0185E00E94760A1F
:10163000982F882329F082E080931F011982188255
:10164000892FDF91CF9108951F93CF93DF93382F88
:10165000EA01122F698378832FB7F89480912201D1
:10166000909123014FEF8E3F940721F480918806DB
:10167000909189062FBF8B839A831C839FB7F89420
:10168000809124019FBF8D833E838F81882379F0D1
:1016900080911F0C8F5F80931F0C89871EA2809101
:1016A0001F0C8093230CD0938F04C0938E048091E1
:1016B0001709882311F085E066C01092D2041092B9
:1016C0007E05109235041092D8048885282F30E0CA
:1016D000C90196958795817022FD826023FF02C023
:1016E000846001C08B7F20FF02C0886001C0877FBB
:1016F0008823A9F080919106882309F043C082E0F5
:10170000BE01412F0E94C2048823E1F581E080934D
:101710009106D0932005C0931F058093D20428859D
:10172000922F80E024FD88E095FF02C0846001C014
:101730008B7F96FF02C0826001C08D7F27FF02C0B1
:10174000816001C08E7F882351F081E0BE01412F6E
:101750000E94F50A8823B1F481E080937E05809190
:10176000D204882331F480917E05882311F486E029
:101770000AC081E080931709D0939304C093920428
:1017800080E001C081E0DF91CF911F9108950F9318
:101790001F93CF93DF93082FEB01E82FF0E0EE0FBC
:1017A000FF1FEF5BF44F118210828091210190E0C6
:1017B000019663E070E00E945C4E682F80932101E7
:1017C00010E0462F50E0FA01EE0FFF1FEF5BF44FE1
:1017D00080819181892BB1F0E62FE695E695E6951B
:1017E000F0E0EF5FF94F808190E09A012770307050
:1017F00002C0959587952A95E2F780FD03C0609316
:1018000021010CC0CA01019663E070E00E945C4EA9
:10181000682F1F5F1330A9F610932101E091210179
:10182000E330B8F4F0E0EE0FFF1FEF5BF44F4081C0
:101830005181FA01708160E0818190E0682B792B01
:10184000868124810E94240B882319F082E30E9460
:101850001D04013059F0013018F0023091F40CC031
:10186000CF52D94071F4109201020BC0C359D64037
:1018700041F41092140205C0C95DD54011F41092D4
:101880002904DF91CF911F910F9108951F93CF935A
:10189000DF93A82FB62F572F142F833010F091E02D
:1018A0002CC0C82FD0E0CC0FDD1FCF5BD44F888178
:1018B0009981892B11F095E020C068837983E62F08
:1018C000F72F448380912101833010F490E015C0FC
:1018D0008681708160E0218130E0622B732BA093C0
:1018E00021014B2F212F0E94240B982F882329F0B0
:1018F00083E08093210119821882892FDF91CF9193
:101900001F9108958830D9F0893038F4823099F0E9
:10191000843099F0813001F50CC08032A1F0813221
:1019200018F48031C9F40DC0803479F08038A1F406
:1019300010C086E00BC087E009C088E007C089E0DE
:1019400005C08AE003C08BE001C08CE00E94130850
:1019500008958DE00E9413080895813049F4809124
:101960002901882379F182E0809329018CE30AC060
:10197000843059F480912801882321F182E08093FA
:1019800028018BE30E941D041BC0803119F40E94C2
:1019900059090895803411F081E00895809125015E
:1019A000882381F082E080932501C398C498109227
:1019B000AB0A86E144E150E060E070E00E9423055C
:1019C00080E0089589E00895833019F1843030F47F
:1019D000813059F0823009F03EC010C0853059F195
:1019E000853000F18730B9F52CC06255764099F505
:1019F00010920D02442379F187E408C067587540BE
:101A000051F510920E02442331F189E40E941D0425
:101A1000089563557740F9F410920F024423D9F0EA
:101A20008BE4F4CF68547B40B1F41092100244234D
:101A300091F08FE4EBCF6659744069F41092110273
:101A40000895625B754039F410921202442319F034
:101A500084E50E941D0408958091200190E0019684
:101A600087709070682F8093200170E0462F50E0BF
:101A7000FA01EE0FFF1FE40FF51FE35AF34F8081C9
:101A80009181892BB1F0E62FE695E695E695F0E099
:101A9000E257F84F808190E09A012770307002C0C1
:101AA000959587952A95E2F780FD03C06093200104
:101AB00009C04F5F5F4F642F67707F5F7830B1F66A
:101AC00070932001209120012830D8F5822F90E0DA
:101AD000FC01EE0FFF1FE80FF91FE35AF34FA0813F
:101AE000B18142812330B1F0243028F4213061F0FB
:101AF000223070F40BC0253089F0253068F0263094
:101B000079F0273089F40EC082E00FC08FE00DC05D
:101B100083E00BC087E009C08AE007C08DE005C004
:101B20008EE003C088E001C080E019968C9319977D
:101B300081E0BD010E94C204882319F08CE20E945A
:101B40001D0408950F931F93CF93DF93182FEB017C
:101B5000042F90E0FC01EE0FFF1FE80FF91FE85380
:101B6000FB4F1182108280911F0190E001968170DD
:101B70009070682F80931F01482F50E0FA01EE0FFC
:101B8000FF1FE40FF51FE853FB4F80819181892BE4
:101B900099F0E62FE695E695E695F0E0EB58F34FE1
:101BA000808190E09A012770307002C095958795EA
:101BB0002A95E2F780FF1CC04F5F5F4F642F617072
:101BC000262F30E0F901EE0FFF1FE20FF31FE8535D
:101BD000FB4F80819181892B71F08091750C90E091
:101BE000062E02C0959587950A94E2F780FD03C002
:101BF00060931F0103C082E080931F0180911F0149
:101C0000823098F490E0FC01EE0FFF1FE80FF91FFF
:101C1000E853FB4F60817181428185E00E94760A22
:101C2000882319F08AE20E941D04812FBE01402FF3
:101C30000E940A05DF91CF911F910F910895FF92A5
:101C40000F931F9380911B0190E001966BE070E071
:101C50000E945C4E682F80931B0100E0462F50E0ED
:101C6000FA01EE0FFF1FE40FF51FE65AFA4F8081CD
:101C70009181892BB1F0E62FE695E695E695F0E0A7
:101C8000E755F54F808190E09A012770307002C0CF
:101C9000959587952A95E2F780FD03C060931B0117
:101CA0000CC0CA0101966BE070E00E945C4E682F88
:101CB0000F5F0B3099F600931B0120911B012B3015
:101CC000D8F4822F90E0FC01EE0FFF1FE80FF91F00
:101CD000E65AFA4F00811181F280822F0E94AB06F2
:101CE000F801818780E0B8014F2D0E94C20488234B
:101CF00019F083E20E941D041F910F91FF90089537
:101D0000853009F449C0863068F4823031F183307F
:101D100018F48823B9F00895833051F1843009F024
:101D20006BC031C0883009F449C0893020F4873055
:101D300009F062C03AC0893009F449C08A3009F01C
:101D40005BC050C0695D744009F056C0109200023B
:101D5000442309F451C081E242C06253754009F046
:101D60004BC010920402442309F446C08BE337C0F1
:101D7000685C7B4009F040C010920502442309F4DE
:101D80003BC08CE32CC06C5F7A40B1F51092060228
:101D9000442391F18DE323C06D53744069F5109293
:101DA0000802442349F18FE31AC06458794021F5B1
:101DB00010920902442301F181E411C067597B406C
:101DC000D9F410920A024423B9F083E408C06F5694
:101DD0007B4091F410920C02442371F085E40E9440
:101DE0001D0408956755794039F410921602442372
:101DF00019F089E50E941D0408950F931F93CF9356
:101E0000DF93042F813009F1813018F08330D9F548
:101E100038C010911B011B30B0F5812F90E0FC0100
:101E2000EE0FFF1FE80FF91FE65AFA4FC081D1816C
:101E3000C617D70741F5118210820E941F0E812F0D
:101E4000BE01402F0E94800E1EC01091200118304C
:101E5000D0F4812F90E0FC01EE0FFF1FE80FF91F77
:101E6000E35AF34FC081D181C617D70761F41182BD
:101E700010820E942C0D812FBE01402F0E94E40C85
:101E800002C010928B06DF91CF911F910F910895A0
:101E90000F931F93CF93DF93182FEB01042F90E044
:101EA000FC01EE0FFF1FE80FF91FEA5FFA4F1182E6
:101EB000108280911C0190E0019683709070682FD1
:101EC00080931C0170E0462F50E0FA01EE0FFF1FD7
:101ED000E40FF51FEA5FFA4F80819181892BB1F001
:101EE000E62FE695E695E695F0E0E257F94F80811A
:101EF00090E09A012770307002C0959587952A95D9
:101F0000E2F780FD03C060931C0109C04F5F5F4F83
:101F1000642F63707F5F7430B1F670931C01209161
:101F20001C01243028F5822F90E0FC01EE0FFF1FEA
:101F3000E80FF91FEA5FFA4F608171814281213019
:101F400039F0213038F0223039F0233049F406C01E
:101F500088E007C087E005C085E003C086E001C0D7
:101F600080E00E945104882319F085E20E941D043C
:101F7000812FBE01402F0E94FD0EDF91CF911F9156
:101F80000F9108952FB7F894809106098A3011F0C7
:101F900090E006C090E080912505843009F491E03E
:101FA0002FBF992349F088E10E941D048FB7F89450
:101FB0001092EA018FBF08959FB7F89481E0809353
:101FC000EA019FBF08950F931F93982F0FB7F894BE
:101FD0008091E901833009F055C010911101191762
:101FE00009F050C080919F07882369F482E08093B4
:101FF00011011092E901812F0E94F40310922D0B20
:102000000E94D9053CC08091E801682F70E09B01D7
:102010002F5F3F4FA1E0B0E02230310511F420E006
:1020200030E0822F922F9770AD0102C0440F551FF0
:102030009A95E2F7869586958695E82FF0E0E15629
:10204000F84F9081892F842341F0622F842F80954F
:10205000892380832093E80107C02617370719F0EA
:102060002F5F3F4FD9CF6FEF6093810981E080935D
:10207000E90185E10E941D04812F0E94F4030FBF36
:1020800080E002C00FBF81E01F910F9108952FB72C
:10209000F8948091470B8A3011F090E006C090E0F0
:1020A00080919507843009F491E02FBF992349F07E
:1020B00081E10E941D048FB7F8941092D3018FBF65
:1020C00008959FB7F89481E08093D3019FBF08954E
:1020D0002FB7F894809183068A3011F090E006C003
:1020E00090E08091FB0A843009F491E02FBF99239E
:1020F00049F086E00E941D048FB7F8941092C00149
:102100008FBF08959FB7F89481E08093C0019FBF6F
:102110000895813049F4809129018130F9F083E0FC
:10212000809329018CE30AC0843061F480912801F6
:102130008130A1F083E0809328018BE30E941D048D
:1021400080E00895803119F40E9476090895803462
:1021500011F081E008950E949309089589E008959F
:10216000682F80959091BC0689238093BC0620E05F
:1021700030E0462F50E0E22FCA01022E02C09595B2
:1021800087950A94E2F780FF02C0EF5F06C02F5FD9
:102190003F4F2830310579F7E0E0F0E0ED5DF64F94
:1021A000108280913604882319F0862F0E948910AE
:1021B00008956F927F928F929F92AF92BF92CF922B
:1021C000DF92EF92FF920F931F933FB7F8948091A5
:1021D000960790919707A0919807B091990722B719
:1021E00006B600FE04C00196A11DB11D22B72295BE
:1021F000269526952370E22EFF2400E010E022E0D1
:10220000880F991FAA1FBB1F2A95D1F7E82AF92A20
:102210000A2B1B2B3FBFA090A50AB090A60AC09026
:10222000A70AD090A80AA80197012A193B094C09CE
:102230005D091092250C8091100990911109A091CF
:102240001209B0911309281739074A075B07C8F02C
:102250008A0D9B1DAC1DBD1D8093A50A9093A60AF7
:10226000A093A70AB093A80A10921009109211091E
:10227000109212091092130920E030E040E050E083
:1022800066C03C014D01621A730A840A950AA401D2
:1022900093012530310541055105B0F0203084E02F
:1022A000380780E0480780E0580720F08FEF8093E0
:1022B000250C68C092E056954795379527959A95D5
:1022C000D1F72093250C5EC023303105410551051F
:1022D00050F182E0682E712C812C912CE60CF71CB9
:1022E000081D191DE092A50AF092A60A0093A70AFC
:1022F0001093A80A8EEF9FEFAFEFBFEFE80EF91E25
:102300000A1F1B1F225030404040504020931009AC
:1023100030931109409312095093130922E030E0E1
:1023200040E050E014C08A0D9B1DAC1DBD1D809384
:10233000A50A9093A60AA093A70AB093A80A1092A0
:1023400010091092110910921209109213096E2DA2
:102350006295660F660F607C2295220F220F207C0B
:1023600092B7965F892F861B821710F4922F960FD3
:10237000992309F491E0915091BF82E086BF87B71D
:10238000826087BF1F910F91FF90EF90DF90CF90F9
:10239000BF90AF909F908F907F906F9008957894AA
:1023A0001F920F920FB60F920BB60F9211241F932C
:1023B0002F933F934F935F936F937F938F939F934D
:1023C000AF93BF93EF93FF9387B78D7F87BF7894C9
:1023D0001FB7F8948091100990911109A0911209EA
:1023E000B09113090097A105B10521F480E00E9486
:1023F0001D0402C00E94D9101FBFFF91EF91BF9131
:10240000AF919F918F917F916F915F914F913F918C
:102410002F911F910F900BBE0F900FBE0F901F902A
:10242000189578941F920F920FB60F920BB60F92D9
:1024300011241F932F933F934F935F936F937F9339
:102440008F939F93AF93BF93EF93FF931FB7F8942E
:102450008091960790919707A0919807B09199075E
:102460000196A11DB11D8093960790939707A093A5
:102470009807B09399078091250C882339F08150F3
:102480008093250C882311F40E94D9101FBFFF915F
:10249000EF91BF91AF919F918F917F916F915F91DC
:1024A0004F913F912F911F910F900BBE0F900FBE38
:1024B0000F901F901895ECE9F1E06927660FF11D68
:1024C000E60FF11DC895382F202D3196C89530257F
:1024D000C90108951F93162F90919507913031F1FE
:1024E000913038F0923009F457C0933009F00CC1A4
:1024F00066C0882309F41CC18FB7F8941092800538
:1025000010927F0510929507109286051092880709
:10251000109200061092520C1092510C8FBF81E065
:10252000809395078EE00E941D0402C1882309F064
:10253000FFC08091510C9091520C0E945B129093BD
:10254000520C8093510C83E08093950720919E0755
:102550008091D401982F917080FF03C08695869555
:1025600001C08695817009F0CFC08091D401992374
:1025700011F0846001C082608093D4018091D40105
:10258000877E88608093D4011092D5018FEF80936D
:102590000A012093D601CCC0882309F0B5C060930E
:1025A00000068091510C9091520C0E945B12909306
:1025B000520C8093510C83E080939507B9C09091A1
:1025C00086059F3F09F4A0C0882371F1923008F47A
:1025D0009BC0E0917F05EE2311F482E002C08E2FB4
:1025E0008150E82FF0E0E158FA4F9281882311F4EE
:1025F000E2E002C0E82FE150392F20E0F0E0E1589E
:10260000FA4F828190E0822B932B2091510C3091D4
:10261000520C8217930709F077C080E00E94890569
:102620008FE00E941D0470C0923008F459C0E09100
:102630008005F0E0E158FA4F32812091D401822FD9
:10264000869586958695837090E08130910519F086
:10265000029769F51CC0277E20612093D401343095
:1026600051F0353018F4332341F009C0832F8750DF
:10267000823028F406C08AE005C083E003C080E011
:1026800001C089E08093D50130930A0110C0809188
:10269000D501873260F4E0910F01F0911001E80F4D
:1026A000F11D30838091D5018F5F8093D5012091FA
:1026B000510C3091520C80918005E82FF0E0E158E8
:1026C000FA4F62818F5F80938005833010F0109203
:1026D0008005C9010E945B129093520C8093510CAB
:1026E00080917F05E82FF0E0E158FA4F12838F5F69
:1026F00080937F05833010F010927F0580918605CE
:102700008F5F8093860514C080912D0B882329F05C
:10271000109295070E946A050BC00E94D90580910E
:10272000D301882329F084E0809395070E94471005
:102730001F9108951F920F920FB60F920BB60F9232
:1027400011242F933F934F935F936F937F938F93B6
:102750009F93AF93BF93EF93FF935F9B69C06CB15F
:10276000E091FC08F091FD08309709F18091030594
:1027700090910405E80FF91F60830196909304057A
:10278000809303052091300530913105821793071E
:1027900008F44EC01092FD081092FC088091BF0B07
:1027A000833009F445C057981092BF0B41C06E3773
:1027B000C1F49091E901992369F08091110182306F
:1027C000B9F520E030E09150923010F421E030E093
:1027D000222371F18091D201882351F181E060E0E0
:1027E00025C08091E6016D3721F482608093E60177
:1027F0001FC081FF05C08D7F8093E60180E26827BE
:102800009091E901992369F080911101823081F45E
:1028100020E030E09150923010F421E030E02223AB
:1028200039F08091D201882319F080E00E946A1269
:10283000FF91EF91BF91AF919F918F917F916F9198
:102840005F914F913F912F910F900BBE0F900FBE54
:102850000F901F90189578941F920F920FB60F92B9
:102860000BB60F921124FF920F931F932F933F9358
:102870004F935F936F937F938F939F93AF93BF9388
:10288000CF93DF93EF93FF93209138043091390475
:1028900080919B0790919C072817390798F4E09145
:1028A0007B06F0917C06E20FF31F80812F5F3F4F84
:1028B00030933904209338049FB7F8948CB95E9A0A
:1028C0009FBFD9C010927C0610927B061092CD0655
:1028D00056989091E60190FF0EC09E7F9093E6017E
:1028E00080911C058093010981E099E061E070E02E
:1028F0000E942C03C0C08091470B843009F48DC026
:10290000853040F4823021F18330B8F5813009F010
:10291000AAC00DC0863009F48EC0863008F484C089
:10292000873009F499C0883009F09DC0A2C0809119
:1029300085070E945903082F83E08093470B8091FD
:10294000230590912405609185070E945B1210C0B9
:102950008091C7040E945903082F83E08093470B9E
:1029600080912305909124056091C7040E945B1219
:10297000909324058093230574C0FFB6F894E091EA
:102980009206F0E0EE0FFF1FE75FF64F80810E9496
:102990005903082F10919206C12FD0E0FE01EE0FCF
:1029A000FF1FE75FF64F809123059091240560811A
:1029B0000E945B12909324058093230520918B073E
:1029C0002F5F20938B07113019F58091DC01E09186
:1029D000D701F091D801E80FF11D30818F5F80930E
:1029E000DC019091DB01981720F482E080930A09C2
:1029F00030E0DE01AA0FBB1FFD01E85FF64F8081CA
:102A0000823031F02F3F21F0A75FB64F3C9303C0D7
:102A100084E08093470BFFBE24C0809123050E9471
:102A20005903082F85E015C0809124050E945903A1
:102A3000082F86E00EC09E7F9093E6018EE780937C
:102A4000010981E099E061E070E00E942C03082F09
:102A500087E08093470B05C080E00E94E30F88E089
:102A600006C0002341F080E00E94E30F89E08093DC
:102A7000470B0E94640AFF91EF91DF91CF91BF91C4
:102A8000AF919F918F917F916F915F914F913F9106
:102A90002F911F910F91FF900F900BBE0F900FBEC3
:102AA0000F901F9018951F93162F9091FB0A91304D
:102AB00041F1913038F0923009F457C0933009F069
:102AC00048C166C0882309F46DC18FB7F89410928D
:102AD000290B1092280B1092FB0A10927D0610927F
:102AE0001509109234041092D0061092CF068FBFB1
:102AF00081E08093FB0A8093370483E00E941D04E9
:102B000051C1882309F025C18091CF069091D0064C
:102B10000E945B129093D0068093CF0682E0809350
:102B2000FB0A109315098091C101982F917080FFC5
:102B300003C08695869501C08695817009F009C10C
:102B40008091C101992311F0846001C0826080935B
:102B5000C1018091C101877E88608093C10110927C
:102B6000C2018FEF809303011DC1882309F0F1C0DA
:102B7000609334048091CF069091D0060E945B123E
:102B80009093D0068093CF0683E08093FB0A0AC11E
:102B900090917D069F3F09F4DCC0882309F46AC048
:102BA000923008F4D6C0E091280BEE2311F482E0B5
:102BB00002C08E2F8150E82FF0E0E85DF44F928143
:102BC000882311F4E2E002C0E82FE150392F20E021
:102BD000F0E0E85DF44F828190E0822B932B20910E
:102BE000CF063091D0068217930709F0B2C0109239
:102BF000370480911509843409F530913404E0914B
:102C0000370B2091380B8E2F8F5F863010F090E0BD
:102C100001C0982F921769F0F0E0E95CF44F32831D
:102C20008093370B863010F01092370B0E943F04D0
:102C300005C01092900782E00E941D048091150942
:102C400090913404833459F48091C504981709F0A5
:102C500080C01092F00B8AE00E941D047AC080911F
:102C60000201981709F475C09093020180E00E9458
:102C700013066FC0923008F458C0E091290BF0E0C1
:102C8000E85DF44F32812091C101822F86958695AF
:102C90008695837090E08130910519F0029761F577
:102CA0001BC0277E20612093C101393038F43730B2
:102CB00068F4332339F0343039F402C0393021F468
:102CC0008AE005C083E003C080E001C089E0809312
:102CD000C2013093030110C08091C201873260F4B9
:102CE000E0910801F0910901E80FF11D3083809116
:102CF000C2018F5F8093C2012091CF063091D00630
:102D00008091290BE82FF0E0E85DF44F62818F5F3E
:102D10008093290B833010F01092290BC9010E9477
:102D20005B129093D0068093CF068091280BE82FFA
:102D3000F0E0E85DF44F12838F5F8093280B8330BF
:102D400010F01092280B80917D068F5F80937D0696
:102D500029C01092370484E00E941D048FB7F894B4
:102D60001092290B1092280B1092FB0A10927D06EC
:102D700010921509109234041092D0061092CF06CA
:102D80008FBF8091D1018D7F8093D10181E00E941E
:102D900013068091C001882329F084E08093FB0A08
:102DA0000E9468101F9108951F920F920FB60F9204
:102DB0000BB60F9211242F933F934F935F936F9312
:102DC0007F938F939F93AF93BF93EF93FF938091E4
:102DD0009B0087FF42C060919C00E0918C07F091BE
:102DE0008D07309719F18091200C9091210CE80FFC
:102DF000F91F608301969093210C8093200C209101
:102E0000590C30915A0C8217930738F110928D07A4
:102E100010928C07809102098330F9F080919A001A
:102E20008F7780939A001092020917C06E3719F4B9
:102E300081E060E010C08091D1016D3721F48260A3
:102E40008093D1010AC081FF05C08D7F8093D1019D
:102E500080E2682780E00E945315FF91EF91BF91B7
:102E6000AF919F918F917F916F915F914F913F9122
:102E70002F910F900BBE0F900FBE0F901F901895C3
:102E800078941F920F920FB60F920BB60F921124E7
:102E9000FF920F931F932F933F934F935F936F93E3
:102EA0007F938F939F93AF93BF93CF93DF93EF93D2
:102EB000FF9320912705309128058091300B909148
:102EC000310B28173907C0F4E0917F06F091800696
:102ED000E20FF31F80812F5F3F4F3093280520932F
:102EE00027059FB7F89480939C0080919B00806495
:102EF00080939B009FBFF1C01092800610927F06C6
:102F00001092290580919A008F7B80939A0090916E
:102F1000D10190FF0EC09E7F9093D10180919504C6
:102F200080930F098FE099E061E070E00E947303E5
:102F3000D4C080918306843009F4A0C0853048F461
:102F4000823011F1833008F049C0813009F0B9C0F6
:102F50000AC0863009F4A0C0863008F496C08730D5
:102F600009F0AFC0AAC0809107090E94AD03082FE5
:102F700082E08093830680917B0590917C0560912F
:102F800007090E945B1214C0809107098334A9F4D9
:102F900080911E050E94AD03082F84E08093830674
:102FA00080917B0590917C0560911E050E945B12CB
:102FB00090937C0580937B0587C08091C2040E941A
:102FC000AD03082F83E08093830680917B05909169
:102FD0007C056091C2040E945B12EACFFFB6F894B0
:102FE000E0912605F0E0EE0FFF1FEF56F84F8081CD
:102FF0000E94AD03082F10912605C12FD0E0FE01DD
:10300000EE0FFF1FEF56F84F80917B0590917C05E6
:1030100060810E945B1290937C0580937B052091D8
:10302000260C2F5F2093260C113019F58091C801D2
:10303000E091C301F091C401E80FF11D30818F5F71
:103040008093C8019091C701981720F482E0809383
:10305000920730E0DE01AA0FBB1FFD01E057F84FD9
:103060008081823031F02F3F21F0AF56B84F3C9332
:1030700003C084E080938306FFBE26C080917B0559
:103080000E94AD03082F85E015C080917C050E9449
:10309000AD03082F86E00EC09E7F9093D1018EE78E
:1030A00080930F098FE099E061E070E00E94730364
:1030B000082F87E08093830607C09498959888E04E
:1030C00008C09498959802C0002339F09498959878
:1030D00089E0809383060E943F04FF91EF91DF9186
:1030E000CF91BF91AF919F918F917F916F915F91A0
:1030F0004F913F912F911F910F91FF900F900BBE19
:103100000F900FBE0F901F9018951F920F920FB641
:103110000F920BB60F9211242F933F934F935F930F
:103120006F937F938F939F93AF93BF93EF93FF938F
:1031300089B38093C30B809111018130A9F48091F0
:10314000E901833089F480911D058F3F19F08F5F6D
:1031500080931D0580911D058B3030F089B78E7FDF
:1031600089BF8DE40E941D049091E901992379F0B3
:1031700080911101823009F065C020E030E091506B
:10318000923010F421E030E0222309F45BC089B7CB
:103190008E7F89BF8091E701882379F089B382957A
:1031A0008F7080958170CD9B8260CE9B02C08B7F9B
:1031B00001C08460CF9B19C015C04091C30B242F60
:1031C00030E0C90134E0969587953A95E1F780950E
:1031D000817045FF826026FF02C08B7F01C0846042
:1031E00047FF03C0982F977F02C0982F9860909355
:1031F0009E07892F8150823020F0943011F0983052
:1032000039F4892F0E94080481E08093D2011AC00A
:103210001092D2019FB7F89489B78E7F89BF81E061
:1032200088BF80916A00826080936A0080916A0002
:103230008E7F80936A0089B7816089BF9FBF8FE0CE
:103240000E940804FF91EF91BF91AF919F918F91E0
:103250007F916F915F914F913F912F910F900BBE96
:103260000F900FBE0F901F9018951F920F920FB6E0
:103270000F9211240F900FBE0F901F9018951F9260
:103280000F920FB60F9211240F900FBE0F901F9048
:1032900018951F920F920FB60F9211240F900FBE28
:1032A0000F901F9018951F920F920FB60F92112436
:1032B0000F900FBE0F901F9018951F920F920FB690
:1032C0000F9211240F900FBE0F901F9018951F9210
:1032D0000F920FB60F9211240F900FBE0F901F90F8
:1032E000189578941F920F920FB60F9211240F9099
:1032F0000FBE0F901F90189578941F920F920FB6E3
:103300000F9211240F900FBE0F901F901895789474
:103310001F920F920FB60F9211240F900FBE0F90B5
:103320001F90189578941F920F920FB60F92112448
:103330000F900FBE0F901F90189578941F920F92C8
:103340000FB60F9211248F939F938CB59DB59F91CB
:103350008F910F900FBE0F901F90189578941F9229
:103360000F920FB60F9211240F900FBE0F901F9067
:1033700018950F931F93082F162F809125058130E4
:10338000D9F0813038F0823009F455C0833009F02B
:103390002CC162C0002309F44FC11092240B10927B
:1033A000230B109216091092320B109259051092AD
:1033B0008707109286073DC1002309F03DC1809127
:1033C0008607909187070E945B12909387078093EE
:1033D000860782E0809325051093320B143409F0A0
:1033E00004C12FB7F8948091EB01982F917080FF62
:1033F00003C08695869501C08695817011F085E0A1
:1034000015C08091EB01992311F0846001C08260A6
:103410008093EB018091EB01877E88608093EB01C4
:103420001092EC018FEF8093120180E02FBF882370
:1034300009F0DBC001C1002309F0D7C06093590532
:1034400080918607909187070E945B12909387076F
:103450008093860783E0EEC0809116098F3F09F4C0
:10346000C4C0002309F44EC0823008F4BEC0E0910D
:10347000230BEE2311F482E002C08E2F8150E82F3F
:10348000F0E0ED5DF44F9281882311F4E2E002C098
:10349000E82FE150392F20E0F0E0ED5DF44F82811C
:1034A00090E0822B932B209186073091870782171B
:1034B000930709F09AC080E00E945F063091590599
:1034C0008FB7F89490917B0720917C078FBF9F5F07
:1034D000963008F090E0921709F487C09FB7F894EF
:1034E00080917B07E82FF0E0E558F84F32838F5F3B
:1034F00080937B07863010F010927B079FBF0E945D
:10350000440773C0823008F45CC0E091240BF0E003
:10351000ED5DF44F32814FB7F8942091EB01822F8B
:10352000869586958695837090E08130910519F097
:10353000029769F51CC0277E20612093EB0134308F
:1035400051F0353018F4332341F009C0832F8750F0
:10355000823028F406C08AE005C083E003C080E022
:1035600001C089E08093EC013093120110C080917A
:10357000EC01873260F4E0911701F0911801E80F37
:10358000F11D30838091EC018F5F8093EC014FBF80
:1035900020918607309187078091240BE82FF0E077
:1035A000ED5DF44F62818F5F8093240B833010F0C8
:1035B0001092240BC9010E945B129093870780939D
:1035C00086078091230BE82FF0E0ED5DF44F128326
:1035D0008F5F8093230B833010F01092230B809128
:1035E00016098F5F8093160927C01092240B109242
:1035F000230B10922505109216091092320B10928F
:10360000590510928707109286078091FB018D7FE4
:103610008093FB0181E00E945F068091EA0188238C
:1036200031F084E0809325050E94C20F05C000237D
:1036300019F081E0809325051F910F9108957894EA
:103640001F920F920FB60F920BB60F9211240F9389
:103650001F932F933F934F935F936F937F938F931A
:103660009F93AF93BF93EF93FF938091530C81305F
:1036700049F0813008F4B4C1823089F0833009F018
:10368000ADC139C0809151068F5F80935106823061
:1036900009F0AAC110920C098093530CA5C1809126
:1036A00051068F5F809351068A3120F083E080932A
:1036B000530C1BC063E00E94504E9923B1F420913B
:1036C0000C098091CF0490E0022E02C09595879559
:1036D0000A94E2F780FF04C081E08093940402C062
:1036E000109294042F5F20930C09809194048823F6
:1036F00009F47AC175C1809151068F5F809351069C
:103700008D3109F069C19091FB0190FF15C09E7F3A
:103710009093FB01809114098093CE042EEC34E049
:1037200030932E0420932D048093CF0410925106E1
:1037300081E08093530C54C180910609843009F4D0
:10374000E2C0853050F4823009F442C0833008F082
:1037500071C0813009F03AC10DC0863009F41DC135
:10376000863008F4F4C0873009F42EC1883009F09F
:103770002DC12FC160917E06862F8D57823068F44F
:103780008091FB0181608093FB0180E2862780931A
:1037900014098DE78093CE0402C06093CE048EECB2
:1037A00094E090932E0480932D048091CE04809316
:1037B000CF041092510681E08093530C83E08093F4
:1037C00006098091560C9091570C0E945B122DC0F7
:1037D0006091C00B862F8D57823068F48091FB0179
:1037E00081608093FB0180E28627809314098DE736
:1037F0008093CE0402C06093CE048EEC94E090934C
:103800002E0480932D048091CE048093CF041092D7
:10381000510681E08093530C83E0809306098091E8
:10382000560C9091570C0E945B129093570C80930A
:10383000560CD6C00FB7F89410919A07E12FF0E01C
:10384000EE0FFF1FEB57F94F6081862F8D578230A7
:1038500068F48091FB0181608093FB0180E2862700
:10386000809314098DE78093CE0402C06093CE0448
:103870008EEC94E090932E0480932D048091CE04DE
:103880008093CF041092510681E08093530C809175
:10389000560C9091570C0E945B129093570C80939A
:1038A000560C209150062F5F20935006113031F5B1
:1038B0008091F201E091ED01F091EE01E80FF11D30
:1038C00030818F5F8093F2019091F101981720F47D
:1038D00082E08093860630E080919A07A82FB0E0BE
:1038E000AA0FBB1FFD01EC57F94F8081823031F0E8
:1038F0002F3F21F0AB57B94F3C9303C084E0809336
:1039000006090FBF6DC02091560C822F8D57823053
:1039100058F491609093FB0180E2282720931409CA
:103920008DE78093CE0402C02093CE048EEC94E009
:1039300090932E0480932D048091CE048093CF0425
:103940001092510681E08093530C85E03AC090912B
:10395000570C892F8D57823068F48091FB0181606C
:103960008093FB0180E29827909314098DE7809360
:10397000CE0402C09093CE048EEC94E090932E047B
:1039800080932D048091CE048093CF041092510631
:1039900081E08093530C86E014C09E7F9093FB01DE
:1039A0002EE72093CE048EEC94E090932E04809327
:1039B0002D042093CF041092510681E08093530C84
:1039C00087E0809306090CC088E001C089E08093FD
:1039D00006090E94440704C08E3110F01092530C67
:1039E00080916200806403C0809162008F7B80932D
:1039F000620040B1441F4427441F80917A07813000
:103A000079F0813030F08230F1F0833009F072C00B
:103A10004CC0442309F070C01092900481E010C0A3
:103A2000809190048F5F80939004813021F444232F
:103A300009F060C061C0823009F05EC01092C40419
:103A400080937A0759C0809190048F5F809390048F
:103A50008A3110F083E0F4CF90E0019763E070E0EA
:103A60000E945C4E892B09F047C03091C40420911C
:103A7000AC0A442349F081E090E002C0880F991F0E
:103A80003A95E2F7282B09C081E090E002C0880F48
:103A9000991F3A95E2F7809528232093AC0A8091EC
:103AA000C4048F5F8093C40427C0809190048F5F0B
:103AB000809390048C31E1F44423E1F06091AC0AEE
:103AC0006E3719F481E060E010C08091FB016D3722
:103AD00021F482608093FB010DC081FF05C08D7FC2
:103AE0008093FB0180E2682780E00E94B91902C040
:103AF0008D3110F010927A07FF91EF91BF91AF9145
:103B00009F918F917F916F915F914F913F912F91F5
:103B10001F910F910F900BBE0F900FBE0F901F9033
:103B2000189578941F920F920FB60F9211240F9050
:103B30000FBE0F901F90189578941F920F920FB69A
:103B40000F9211240F900FBE0F901F90189578942C
:103B50001F920F920FB60F9211248F939F93809113
:103B60008800909189009F918F910F900FBE0F90C8
:103B70001F90189578941F920F920FB60F921124F0
:103B80000F900FBE0F901F9018951F920F920FB6B7
:103B90000F920BB60F9211242F933F934F935F9385
:103BA0006F937F938F939F93AF93BF93EF93FF9305
:103BB00044B155B178949FB7F8948091D504282FDB
:103BC0002695217081709FBF8823D1F4339880910E
:103BD0008A06813019F0823021F50AC0222351F083
:103BE000509305094093040989E30E941D0419C0FC
:103BF000222319F40E94020A14C010928A0611C0EE
:103C00008FB7F8948FBF2FB7F89496B1892F877626
:103C1000806186B99772892F806186B9906996B95B
:103C20002FBFFF91EF91BF91AF919F918F917F91A6
:103C30006F915F914F913F912F910F900BBE0F901D
:103C40000FBE0F901F9018958091BA068F3F31F0EC
:103C50008FEF8093BA0681E20E941D0408950895B3
:103C60008091BA0690E00895982F8091BA0698172F
:103C700029F09093BA0681E20E941D0408953FB78F
:103C8000F8948091960790919707A0919807B0912A
:103C9000990722B706B600FE04C00196A11DB11D0A
:103CA00022B73FBF229526952695237030E040E04D
:103CB00050E062E0880F991FAA1FBB1F6A95D1F7D9
:103CC000282B392B4A2B5B2BB901CA01089520916F
:103CD000290230912A0274E0220F331F7A95E1F70E
:103CE000C9010895AF92BF92CF92DF92EF92FF92F7
:103CF0000F931F932FB7F894809196079091970791
:103D0000A0919807B0919907A2B606B600FE04C02C
:103D10000196A11DB11DA2B62FBFA294A694A69490
:103D2000F3E0AF22BB24CC24DD24E2E0880F991F0E
:103D3000AA1FBB1FEA95D1F7A82AB92ACA2ADB2AEB
:103D40009501A60160E070E080E090E00E94EB4BFE
:103D500020E030E04AE754E40E94154B1F910F9198
:103D6000FF90EF90DF90CF90BF90AF9008958823A1
:103D700011F481E00895813011F482E008958230D9
:103D800011F484E00895833011F488E008958430BC
:103D900011F480E10895853011F480E208958630B1
:103DA00011F480E40895873011F480E808958F3F7E
:103DB00011F080E008958FEF0895CF93DF93EC0129
:103DC000562F80911402882369F56D3158F520E053
:103DD00030E0772767FD70950AC0F901E356F94F87
:103DE000DE01A20FB31F8C9180832F5F3F4F2617F8
:103DF00037079CF340939B068FEF80939406809344
:103E0000930687EC8093990681E063E976E0452F7D
:103E10000E94460C882331F481E08093140221E053
:103E200030E002C020E030E0C901DF91CF91089579
:103E3000FF920F931F938C01F62E842F0E94B71EC2
:103E4000482FC8016F2D0E94DD1E1F910F91FF901A
:103E500008954FEF0E94DD1E0895FF920F931F9368
:103E60008C01F62E842F0E94B71E482F4095C80162
:103E70006F2D0E94DD1E1F910F91FF90089580E02D
:103E800090E00895089580E090E008956BE770E079
:103E900080E090E008958091150290E0089580E020
:103EA00090E008950895089521E020931502AA272F
:103EB00097FDA095BA2FBC01CD010E94B04B2AE915
:103EC00039E949E95FE30E949E4C0E947D4BAB01BA
:103ED000BC0181E0403B5807A0F48091810690919D
:103EE00082064817590769F084E0809332045093A2
:103EF0002B0440932A0486E980933F0B8DE30E94B4
:103F00001D040895CF93DF93EB01AA2797FDA09599
:103F1000BA2FBC01CD010E94B04B2AE939E949E929
:103F20005FE30E949E4C0E947D4B962F472F81E0BD
:103F30008093150260912702709128029E01261B32
:103F4000370B37FF03C028593E4F06C081E02936A2
:103F5000380714F0285631406C1B7D0B77FF03C0E7
:103F600068597E4F06C081E06936780714F06856BC
:103F7000714026173707DCF4292F342F81E0203BCE
:103F8000380788F5809181069091820628173907B5
:103F900051F183E08093320430932B0420932A0460
:103FA00086E980933F0B81E08093000519C0292F9B
:103FB000342F81E0203B3807B0F480918106909146
:103FC00082062817390779F083E080933204309312
:103FD0002B0420932A0486E980933F0B109200055E
:103FE0008DE30E941D04DF91CF9108951F93162F3A
:103FF00021E020931502AA2797FDA095BA2FBC01B6
:10400000CD010E94B04B2AE939E949E95FE30E94FA
:104010009E4C0E947D4BAB01BC0181E0403B5807A8
:10402000B0F480918106909182064817590779F083
:1040300083E08093320450932B0440932A0486E952
:1040400080933F0B109300058DE30E941D041F9188
:10405000089520E030E044EB53E40E949E4C23ECB2
:1040600035EF48EC50E40E94154B0E947D4BDC017B
:10407000CB010E94541F089560E070E080E090E062
:10408000089580E090E00E94541F089580912702D7
:10409000909128020895EF92FF920F931F937B0156
:1040A0008C0120E030E040E85FEB0E94114B882358
:1040B00049F481E08093320486E980933F0B1092AB
:1040C000000512C0C801B70120E030E040E85FE31E
:1040D0000E94114B882359F491E09093320486E9B1
:1040E00080933F0B909300058DE30E941D0481E0B7
:1040F000809315021F910F91FF90EF9008951092F9
:1041000015021092320410923F0B81E08093500C04
:104110008DE30E941D04089510921502109232043E
:1041200010923F0B1092500C8DE30E941D040895D5
:1041300081E00E94891084E00E94891080E10E9441
:10414000891080E40E948910089581E00E94AD0CDE
:1041500084E00E94AD0C80E10E94AD0C80E40E94DE
:10416000AD0C089580E090E0089580E090E008951F
:104170009C012095309521703070C90108950F93EE
:104180001F938C010E94B71E000F111F095E1D4F67
:1041900022E030E0F801318320830E94AD0C1F91B2
:1041A0000F9108950F931F938C010E94B71E000F6B
:1041B000111F095E1D4F24E030E0F8013183208398
:1041C0000E9489101F910F91089520E030E0FC01BA
:1041D000EE0FFF1FE95EFD4F80819181019711F481
:1041E00021E030E0C901089520E030E0FC01EE0F4D
:1041F000FF1FE95EFD4F80819181039711F421E05B
:1042000030E0C901089580914E0C90914F0C0895B3
:1042100080E090E0089580E090E0089580E090E0F4
:10422000089580E090E00895089520E03CE08091BA
:10423000FE018C3118F04CE150E002C0482F50E0F4
:104240008CE1D9011D928A95E9F73091FE01209108
:10425000FC0180E090E011C0E22FF0E0E555F64F60
:104260006081332329F02F5F2A3F09F420E0315089
:10427000FC01E050F44F608301968417950760F3CA
:104280003093FE012093FC018FEF9FEF66EF7BE000
:104290004CE10E94BA07882319F080E20E941D04B5
:1042A00008959FB7F8948091FF01823011F49FBF69
:1042B0000EC08091FE01882321F49FBF21E030E0F1
:1042C00008C082E08093FF019FBF0E94152120E07B
:1042D00030E0C90108951F93182F8091FF018130AC
:1042E00049F48091FE018C3828F082E08093FF0130
:1042F0000E9415212FB7F8949091FE019A3FA8F4DF
:104300008091FD01E82FF0E0E555F64F10838F5FB7
:104310008093FD018A3F11F41092FD019F5F9093FD
:10432000FE012FBF20E030E003C02FBF2FEF3FEF93
:10433000C9011F910895882381F4442359F4809181
:10434000FE01882319F00E941521089581E08093D1
:10435000FF01089580E20E941D0408950F931F93AA
:10436000CF93DF93182FEB01042FE82FF0E0EE0F2F
:10437000FF1FED57F84F1182108210921A01A09181
:104380008307B0918407109721F08091C60B80FFBE
:1043900003C081E080931A0180911A01882391F56E
:1043A000FD01339613963C91139720E0818190E0B4
:1043B000822B932B2481818313969C931397809156
:1043C0002F0490913004892BD1F4B0933004A09342
:1043D0002F042093310480911901882399F01092C1
:1043E000190180E0BD01422F0E945607882351F039
:1043F00081E0809319011092300410922F048FE114
:104400000E941D04812FBE01402F0E949B21DF913D
:10441000CF911F910F9108950F931F93CF93DF9327
:10442000182FEB01042F90E0FC01EE0FFF1FE80FA7
:10443000F91FE15DFB4F118210821092190160910A
:104440002F04709130046115710521F080912B09C2
:1044500080FF03C081E080931901809119018823B6
:1044600049F4409131040E945607882319F08DE1E8
:104470000E941D04112381F480911A01882361F4A4
:1044800080918307909184078C179D0729F480E021
:10449000BE01402F0E94AE21DF91CF911F910F915D
:1044A000089580918A07882389F08091BA0688232D
:1044B00029F01092BA0681E20E941D040E943C0776
:1044C00081E197E30E94993E10928A0786E50E9457
:1044D0001D040895AF92BF92CF92DF92EF92FF92A8
:1044E0000F931F935B016C01E0EAF7E070E06085D9
:1044F00061FFFBC0E080F18002811381248135815E
:1045000046815781D601C5018E199F09A00BB10BB9
:1045100082179307A407B50708F4E7C060FF03C03C
:104520006D7F608708C02E0D3F1D401F511F2083E7
:10453000318342835383E72FF0E0EE31F10508F039
:10454000D9C0EA5BFF4FEE0FFF1F0590F491E02DFD
:1045500009948BE144EF51E060E070E00E941308A1
:10456000BDC09FB7F8948091F00B9FBF882309F4DA
:10457000C1C08BE0B4C09FB7F894809137049FBF4F
:10458000882309F4B7C08FB7F8941092290B1092C2
:10459000280B1092FB0A10927D06109215091092BA
:1045A00034041092D0061092CF068FBF8091D101B3
:1045B0008D7F8093D10181E00E9413069BC088E02B
:1045C0008EC09FB7F89480912D0B9FBF882341F038
:1045D0008FB7F894109295078FBF0E946A058AC022
:1045E0000E94D90587C080910102882309F082C00A
:1045F0008FEF809337098093300980932F0980E8EB
:104600008093350980E06FE279E040E00E94460C3B
:10461000882309F06FC081E0809301026BC081E0C4
:104620000DC082E00BC084E009C088E007C080E1D3
:1046300005C080E203C080E401C080E80E94B010A1
:1046400059C080912E098E7F1BC080912E098D7FCD
:1046500017C080912E098B7F13C080912E09877F10
:104660000FC080912E098F7E0BC080912E098F7D07
:1046700007C080912E098F7B03C080912E098F7710
:1046800080932E0937C080E008C0809125018823DF
:1046900089F10E9493092EC081E00E94A1082AC0DE
:1046A00080912701882331F10E94760923C089B7C0
:1046B0008E7F89BF81E00E94E30F8CE410C080915F
:1046C00013028823B9F481E08093130285E507C0C3
:1046D00085E00E94A10881E0809307028FE30E9499
:1046E0001D0408C00E94512205C07F5F39967E31AB
:1046F00009F0FDCE81E00E941D041F910F91FF90F3
:10470000EF90DF90CF90BF90AF900895DF92EF923F
:10471000FF920F931F93CF93DF93F82EE92E8B0117
:10472000D42EC82FD92F88858093F10B9A8180E0F1
:104730002B8130E0822B932B9093F50B8093F40B1D
:104740008EE20E941D048F81882349F08885809322
:104750009104898580931B058FE20E941D04688166
:1047600029818FB7F89440912201509123019FEF46
:104770004E3F590721F440918806509189068FBF1A
:10478000962F80E030E0822B932B8417950751F011
:10479000988180E0298130E0822B932B8F5F9F4F9F
:1047A00009F055C06A812B818FB7F894409122019E
:1047B000509123019FEF4E3F590721F44091880605
:1047C000509189068FBF962F80E030E0822B932B8B
:1047D00084179507E1F18E81813819F0873CB9F58E
:1047E0000CC099858091230C981789F5E0918E046F
:1047F000F0918F0481E086A32AC08885813011F46E
:1048000040E021C0823011F441E01DC0843011F439
:1048100042E019C0883011F443E015C0803111F432
:1048200044E011C0803211F445E00DC0803411F431
:1048300046E009C0803811F447E005C08F3F11F011
:1048400043E601C04FEFC8016D2D0E94D53E8F2D6C
:104850009E2DDF91CF911F910F91FF90EF90DF90F0
:1048600008955F926F927F928F929F92AF92BF92C4
:10487000CF92DF92EF92FF920F931F93CF93DF932C
:10488000E82FF0E0EB35F10510F00C942034EC59F2
:10489000FF4FEE0FFF1F0590F491E02D09948091DA
:1048A000D404882309F036C06FB7F894209110091A
:1048B0003091110940911209509113098091A50A74
:1048C0009091A60AA091A70AB091A80A280F391FB3
:1048D0004A1F5B1F6FBF8091330B9091340BA091E7
:1048E000350BB091360B1092D4041FB7F894209377
:1048F000A50A3093A60A4093A70A5093A80A80936A
:10490000100990931109A0931209B09313090E9402
:10491000D9101FBF8FB7F894209196073091970751
:10492000409198075091990762B706B600FE05C0FE
:104930002F5F3F4F4F4F5F4F62B78FBF62956695B6
:104940006695637070E080E090E0E2E0220F331F34
:10495000441F551FEA95D1F7622B732B842B952B9F
:104960000E946A220C9420348FB7F8942091960705
:1049700030919707409198075091990762B706B612
:1049800000FE05C02F5F3F4F4F4F5F4F62B76295EC
:10499000669566956370A62EBB24CC24DD2492E038
:1049A000220F331F441F551F9A95D1F7A22AB32A0D
:1049B000C42AD52A8FBF87B78D7F87BFE0EAF7E08B
:1049C0008FEFE82E8FEFF82E8FEF082F8FE7182F3D
:1049D00060E0808581FF1BC080819181A281B381CD
:1049E000A6019501281B390B4A0B5B0BDA01C901A3
:1049F0002481358146815781281B390B4A0B5B0B7B
:104A00002E153F054007510714F461E002C0A801CC
:104A10009701399688E0EE3AF80719F079018A0192
:104A2000D8CF662311F40C94203412161306140602
:104A3000150634F0C601B5010E946A220C94203498
:104A40002093330B3093340B4093350B5093360B3C
:104A500081E08093D4041FB7F894A092A50AB09285
:104A6000A60AC092A70AD092A80A209310093093F0
:104A7000110940931209509313090E94D9101FBFC6
:104A80000C9420343FB7F89410920D0920918306BE
:104A900090E0283009F491E080E0293009F481E0C9
:104AA000992311F4882351F010928306E091260592
:104AB000F0E0EE0FFF1FE057F84F10823FBF992341
:104AC00011F48823E1F080910709833491F42FB722
:104AD000F8949091380B8091370B891741F0892F0A
:104AE0008F5F8093380B863010F01092380B2FBFF9
:104AF0000AC050E0992309F451E061E006C0222386
:104B000011F010E06EC060E050E09FB7F894809123
:104B1000C0019FBF882339F09FB7F8948AE0809343
:104B200083069FBF3AC08FB7F894409190073091A9
:104B3000920710927C0510927B051092260C8FBF75
:104B40002FB7F8949091370B8091380B2FBF98179F
:104B500009F14423F9F43FB7F89482E08093900779
:104B60002FB7F8949091370B8091380B2FBF98177F
:104B700011F480E006C0E091380BF0E0E95CF44FFE
:104B8000828180931E053FBF83E4809307091092C2
:104B9000260514C03150323010F010E010C09FB71D
:104BA000F8948091D304882311F084E401C085E453
:104BB000809307099FBF81E08093260511E066235B
:104BC00081F00FB7F8945093C901552331F48091C7
:104BD000F00B882311F089E001C088E00E941D04D9
:104BE0000FBF809183068A3021F40E9468100C94D4
:104BF0002034112311F40C9420349FB7F894809141
:104C0000FB0A8823E1F4949A959A9FBF9FB7F89482
:104C100081E0809383069FBF8091D1018E7F809336
:104C2000D1018EE780930F098FE099E061E070E099
:104C30000E947303882311F40C94203406C09FBF94
:104C400082E00E941D040C942034949895989FB79C
:104C5000F89489E0809383069FBF82E00E941D0440
:104C60000C94203482E04DE050E060E070E00E945F
:104C700013080C9420348091BA078D7F8093BA0773
:104C80000C94203480919A008F7B80939A008091BD
:104C90009A008F7780939A0010920209109229054A
:104CA00080919A00886080939A0080919A00806138
:104CB00080939A0080919A00806880939A0080E1A6
:104CC0000E941D040C94203487E00E941D040C9463
:104CD000203480919A00877F80939A0080919A0077
:104CE0008F7E80939A000C9420341092C60110920B
:104CF000C5018FB7F8944091C9018FBF8091CA0157
:104D0000811143E0A091C301B091C40120911C0125
:104D1000243010F00C942034822F90E0FC01EE0F30
:104D2000FF1FE80FF91FEA5FFA4F608171816A1770
:104D30007B0711F00C942034822F0E94480F0C94B2
:104D400020345FB6F894A090AE05B090AF05C09047
:104D5000B005D090B1059501A60160E070E080E05B
:104D600090E0FEE4AF2EE3E8BE2ECC24DD24EE245A
:104D7000FF2400E010E00E94C84639014A0100E229
:104D80000E94C34759016A01B401A3017695679552
:104D9000579547954A0D5B1D6C1D7D1D77FF05C01E
:104DA0007F774F5F5F4F6F4F7F4F4093AE055093BC
:104DB000AF056093B0057093B1055FBE4F70507042
:104DC000465F5F4F60E070E081E00E9413080C9442
:104DD00020348091B1078D7F8093B10788E00E94D5
:104DE0001D040C9420342FB7F8948091CB018930A6
:104DF00038F4873068F4882339F0843039F402C0FD
:104E0000893021F48AE005C083E003C080E001C05E
:104E100089E08093C80182E090E09093C60180937E
:104E2000C5011092CA0191E09093F00B3091C50436
:104E30002FBF2091CB014FB7F89480919207882320
:104E400011F080E009C0909392072093930790930C
:104E5000D3043093C20481E04FBF882321F00E9425
:104E60003F040C9420348BE00E941D040C942034E9
:104E70008FB7F8949091CD01C091CE01D091CF0120
:104E80002091D001E09001058FBF993038F4973020
:104E900068F4992339F0943039F402C0993021F440
:104EA0004AE005C043E003C040E001C049E0241BE4
:104EB000422F963099F0973038F4943091F0953035
:104EC00068F4992349F006C0983051F0983040F0CA
:104ED000993039F040E005C0475003C04A5001C046
:104EE0004150FE013A96963061F1973020F49530AA
:104EF00009F029C106C0973051F1983009F023C15B
:104F00005AC080910E098823C1F400911D011091AF
:104F10001E01D0931E01C0931D01FF24F394F09253
:104F2000960BBE010E94F50A882319F4F0920E092F
:104F30000BC188E20E941D0407C19093960B88E282
:104F400026C0CE01BF010E9486238C01FDC0898549
:104F5000883001F1893040F4833099F08730B1F026
:104F6000823009F0F0C008C08D30D9F08E30F1F0F9
:104F70008A3009F0E8C010C08A8580932A0186E44F
:104F800006C08A8580932B0188E401C08AE40E94D0
:104F90001D04D9C083E5FBCF8A85809302058EE48A
:104FA000F6CF8A8580933A0480E5F1CF8A85809395
:104FB000220981E5ECCF8985883009F485C08930E4
:104FC00070F4833041F1843020F4823009F0BBC0AA
:104FD00016C0863089F1873009F0B5C066C08B30C5
:104FE00009F490C08C3020F4893009F0ACC07BC04B
:104FF0008F3009F495C0803109F0A5C09AC08A8528
:1050000080932801882311F484E00BC0813009F0DB
:105010009AC084E00DC08A8580932901882329F4F1
:1050200081E060E00E94E9028EC0813009F08BC00F
:1050300060E00E94BA0287C0838180932C0485813E
:105040008093D704868180936504918180E02281DA
:1050500030E0822B932B909382068093810684818B
:10506000809384058A85863079F4918180E022815D
:1050700030E0822B932B90933C0480933B048481FB
:10508000809385058EE383CF853009F05CC09181E4
:1050900080E0228130E0822B932B909382068093D4
:1050A00081068481809384054EC08A8580938C0616
:1050B000918180E0228130E0822B932B90931E0C13
:1050C00080931D0C82E463CF8A8580938D04918147
:1050D00080E0228130E0822B932B90938309809390
:1050E000820984E454CF8A858093240C918180E0E6
:1050F000228130E0822B932B90937A06809379065D
:1051000080E445CF8A858093EF0BAAE2B5E0FE01EB
:105110003B9686E001900D928150E1F78AE537CF0A
:1051200080919106882379F08A85809305058DE228
:105130002ECF9A8580E0218130E0822B932B9093B3
:105140008206809381068E019FB7F894EE2DF0E0E1
:10515000EE0FFF1FEC5FFE4F008311838091C101B2
:10516000EE2011F08B7F01C08D7F8093C1011092E2
:10517000CC019FBF0C9420343FB7F8941092BB062B
:105180002091470B90E0283009F491E080E029302D
:1051900009F481E0992311F4882351F01092470B10
:1051A000E0919206F0E0EE0FFF1FE85FF64F1082ED
:1051B0003FBF992311F4882309F18091C7048F5FC1
:1051C0008093C70480918507833491F42FB7F894B6
:1051D0009091130580911205891741F0892F8F5FF7
:1051E00080931305863010F0109213052FBF0AC06C
:1051F00050E0992309F451E061E006C0222311F048
:1052000010E057C060E050E09FB7F8948091D30160
:105210009FBF882339F09FB7F8948AE08093470BAB
:105220009FBF34C08FB7F8944091080930910A09A4
:105230008FBF2FB7F89490911205809113052FBF5F
:10524000981709F14423F9F43FB7F89482E080936A
:1052500008092FB7F89490911205809113052FBF7C
:10526000981711F480E006C0E0911305F0E0EE5EBF
:10527000FA4F8281809309093FBF83E480938507B9
:10528000109292060BC03150323010F010E007C07F
:1052900085E48093850781E08093920611E0662380
:1052A00041F08FB7F8945093DD018FBF83E10E94E6
:1052B0001D048091470B8A3021F40E9447100C9402
:1052C0002034112311F40C94203480E00E94210931
:1052D0000C94203484E04DE050E060E070E00E94E7
:1052E00013080C9420348091CC078D7F8093CC07D9
:1052F0000C942034569857981092BF0B1092CD06FC
:10530000539A549A579A9FB7F89489B78E7F89BF5A
:1053100081E088BF80916A00826080936A008091FA
:105320006A008E7F80936A0089B7816089BF9FBFC2
:105330008FE00E94080487E10E941D040C94203431
:1053400082E10E941D040C942034539854980C94CC
:1053500020341092DA011092D9018FB7F89440915D
:10536000DD018FBF8091DE01811143E0A091D70163
:10537000B091D80120911F01223010F00C942034FC
:10538000822F90E0FC01EE0FFF1FE80FF91FE8539A
:10539000FB4F608171816A177B0711F00C942034F8
:1053A000822F0E94A20D0C9420349FB7F894209174
:1053B000E101A091E201B091E3013091E40110918B
:1053C00022058091E5019FBF90E080FD90E881FF7C
:1053D00002C0906401C09F7B82FF02C0906201C046
:1053E0009F7D83FF03C0892F806102C0892F8F7E3C
:1053F00018968C931897243051F0253018F42223F6
:1054000041F009C0822F8750823028F406C08AE01C
:1054100005C083E003C080E001C089E0432F481B42
:10542000253051F0263028F4222389F0243031F43D
:105430000EC0293018F40BC04A5003C0253039F48F
:1054400040E0CD011A96BD010E948623DC019FB782
:10545000F894E12FF0E0EE0FFF1FE55FFE4FB18300
:10546000A0838091D401112311F08B7F01C08D7F27
:105470008093D4011092E0019FBF0C9420348FB729
:10548000F894909181099093110193E09093E90130
:105490008FBF80911101882321F0813009F06CC009
:1054A00061C089B78E7F89BF1FB7F8948091890743
:1054B00040E020E030E0682F70E0CB01022E02C017
:1054C000959587950A94E2F780FD4F5F2F5F3F4FD8
:1054D0002830310591F7413031F482E064E670E024
:1054E00042E550E037C040E020E030E0CB01022E42
:1054F00002C0959587950A94E2F780FD4F5F2F5F74
:105500003F4F2830310591F7423031F482E064E6B4
:1055100070E040E550E01EC040E020E030E0CB010C
:10552000022E02C0959587950A94E2F780FD4F5FA1
:105530002F5F3F4F2830310591F7433031F482E03F
:1055400064E670E04CE450E005C082E064E670E0A0
:1055500046E450E00E94C703809189070E94080436
:105560001FBF0AC089B78E7F89BF82E064E670E002
:1055700040E050E00E94C70310911101112329F06F
:10558000113011F00C9420342BC09FB7F894109276
:1055900024051092230510928B0781E08093470B1E
:1055A0009FBF8091E6018E7F8093E6018EE7809316
:1055B000010981E099E061E070E00E942C038823FA
:1055C00011F40C94203480E00E94E30F9FB7F8940C
:1055D00089E08093470B9FBF0E94640A0C9420349B
:1055E0008AE08093940710921D058FB58F7D8FBD43
:1055F00081E060E273E04AE050E00E94C7038091DE
:10560000D0040E9408048AE148E050E060E070E0C5
:105610000E9413089FB7F89489B78E7F89BF18BF7F
:1056200080916A00826080936A0080916A008E7F18
:1056300080936A0089B7816089BF9FBF0C94203432
:105640003FB7F8941092220C2091060990E0283080
:1056500009F491E080E0293009F481E0992311F404
:10566000882351F010920609E0919A07F0E0EE0FBE
:10567000FF1FEC57F94F10823FBF992311F4882385
:1056800009F18091C00B8F5F8093C00B80917E06E3
:10569000833491F42FB7F89490917C0780917B0725
:1056A000891741F0892F8F5F80937C07863010F037
:1056B00010927C072FBF0AC050E0992309F451E0F3
:1056C00061E006C0222311F010E057C060E050E016
:1056D0009FB7F8948091EA019FBF882339F09FB764
:1056E000F8948AE0809306099FBF34C08FB7F8947E
:1056F00040918406309186068FBF2FB7F894909121
:105700007B0780917C072FBF981709F14423F9F498
:105710003FB7F89482E0809384062FB7F894909175
:105720007B0780917C072FBF981711F480E006C09B
:10573000E0917C07F0E0E558F84F82818093850680
:105740003FBF83E480937E0610929A070BC03150CE
:10575000323010F010E007C085E480937E0681E0CF
:1057600080939A0711E0662341F08FB7F894509325
:10577000F3018FBF8AE10E941D04809106098A30DF
:1057800021F40E94C20F0C942034112311F40C94C4
:1057900020348FB7F8941092570C1092560C109238
:1057A000500631E0309306098FBF8091FB018E7F58
:1057B0008093FB012EE72093CE048EEC94E090932F
:1057C0002E0480932D042093CF0410925106309321
:1057D000530C0C94203410927A071092530C809141
:1057E0007D00806180937D008091FF01882311F00E
:1057F0000C9420348CE291E09093870C8093860C7B
:105800009FB7F89481E08093FF019FBF80E04AE05A
:1058100050E060E070E00E9413080C94203489E1AD
:105820000E941D040C94203480917D008F7E809313
:105830007D00809162008064809362008FB7F8944D
:105840001092FF018FBF0C9420341092F00110923F
:10585000EF018FB7F8944091F3018FBF8091F4016D
:10586000811143E02091ED013091EE018091190109
:10587000882311F00C94203460912F04709130042F
:105880006217730711F00C9420340E940C220C94C0
:1058900020348FB7F8949091F701C091F801D0911E
:1058A000F9016091FA011091BD048FBF9430B9F0F5
:1058B000953018F4992321F005C0993018F40FC0E1
:1058C00083E003C080E0992351F46750681B898509
:1058D000893C29F4CE010A9648E00E94D53E9FB744
:1058E000F894E12FF0E0EE0FFF1FED5EFE4FD18345
:1058F000C0838091EB01112311F08B7F01C08D7F5C
:105900008093EB011092F6019FBF9AC780912B09FB
:10591000882309F495C7CFE2D4E001E010E090912C
:105920002B09802F8923C9F0288139811982188297
:10593000802F8095982390932B09112371F48091E7
:105940001A01882351F460918307709184076217CC
:10595000730719F443E00E94AE211F5F23961830AD
:1059600009F46EC7000FDBCF80911901282F30E0BA
:10597000F901EE0FFF1FE20FF31FE15DFB4F6081A6
:10598000718141E00E940C225BC78091C60B882385
:1059900009F456C7C3E8D7E001E010E09091C60BC8
:1059A000802F892369F06881798119821882802F7C
:1059B000809598239093C60B812F43E00E949B21F2
:1059C0001F5F2296183009F43BC7000FE7CF809184
:1059D0001A01E82FF0E0EE0FFF1FED57F84F60813E
:1059E000718141E00E94AE212BC78FEF9FEF66EFE0
:1059F0007BE04CE10E94BA07882309F421C780E2CA
:105A00000E941D041DC7809100028823A1F480918B
:105A1000BA068093E30480E069ED74E041E00E94FF
:105A2000E306882321F481E08093000209C781E224
:105A30000E941D0405C781E20E941D0401C709EAF6
:105A40001AE0EE24F8018081882331F1FF24F394D9
:105A5000C0E0D0E0F80140818F2D8423B9F08E2D75
:105A60008C0F282F30E0F901EE0FFF1FE20FF31F1C
:105A7000E65AFA4F60817181118210829F2D9095B4
:105A80004923F801408343E00E94800E2196C830EC
:105A9000D10511F0FF0CDECF0F5F1F4FF8E0EF0EC6
:105AA00020E1E21609F4CCC6CDCFF0901B018F2D7A
:105AB00090E0FC01EE0FFF1FE80FF91FE65AFA4FC6
:105AC00000811181118210820E941F0E8F2DB8015A
:105AD00041E00E94800EB4C680918E06882309F4AE
